{
  "contractName": "lendMoney",
  "abi": [
    {
      "constant": false,
      "inputs": [
        {
          "name": "_loaner",
          "type": "address"
        },
        {
          "name": "_debtor",
          "type": "address"
        },
        {
          "name": "_amount",
          "type": "uint256"
        },
        {
          "name": "_interest",
          "type": "uint256"
        },
        {
          "name": "_duedate",
          "type": "uint256"
        },
        {
          "name": "_condition",
          "type": "uint256"
        },
        {
          "name": "loanerprivkey",
          "type": "address"
        },
        {
          "name": "debtorprivkey",
          "type": "address"
        }
      ],
      "name": "startLoan",
      "outputs": [
        {
          "name": "",
          "type": "uint256"
        }
      ],
      "payable": true,
      "stateMutability": "payable",
      "type": "function"
    },
    {
      "constant": false,
      "inputs": [
        {
          "name": "index",
          "type": "uint256"
        }
      ],
      "name": "endLoan",
      "outputs": [],
      "payable": true,
      "stateMutability": "payable",
      "type": "function"
    },
    {
      "constant": false,
      "inputs": [
        {
          "name": "index",
          "type": "uint256"
        }
      ],
      "name": "requestEnd",
      "outputs": [],
      "payable": true,
      "stateMutability": "payable",
      "type": "function"
    },
    {
      "constant": false,
      "inputs": [
        {
          "name": "index",
          "type": "uint256"
        },
        {
          "name": "option",
          "type": "bool"
        }
      ],
      "name": "confirmEnd",
      "outputs": [],
      "payable": true,
      "stateMutability": "payable",
      "type": "function"
    },
    {
      "constant": false,
      "inputs": [
        {
          "name": "index",
          "type": "uint256"
        }
      ],
      "name": "payLoan",
      "outputs": [
        {
          "name": "",
          "type": "bool"
        }
      ],
      "payable": true,
      "stateMutability": "payable",
      "type": "function"
    },
    {
      "constant": false,
      "inputs": [
        {
          "name": "debtorID",
          "type": "uint256"
        }
      ],
      "name": "getDebtor",
      "outputs": [
        {
          "name": "",
          "type": "address"
        }
      ],
      "payable": false,
      "stateMutability": "nonpayable",
      "type": "function"
    },
    {
      "constant": false,
      "inputs": [
        {
          "name": "loanerID",
          "type": "uint256"
        }
      ],
      "name": "getLoaner",
      "outputs": [
        {
          "name": "",
          "type": "address"
        }
      ],
      "payable": false,
      "stateMutability": "nonpayable",
      "type": "function"
    },
    {
      "constant": true,
      "inputs": [],
      "name": "getAllLoaners",
      "outputs": [
        {
          "name": "",
          "type": "address[]"
        }
      ],
      "payable": false,
      "stateMutability": "view",
      "type": "function"
    },
    {
      "constant": true,
      "inputs": [],
      "name": "getAllDebtors",
      "outputs": [
        {
          "name": "",
          "type": "address[]"
        }
      ],
      "payable": false,
      "stateMutability": "view",
      "type": "function"
    },
    {
      "constant": true,
      "inputs": [],
      "name": "pleaseWork",
      "outputs": [
        {
          "name": "",
          "type": "uint256"
        }
      ],
      "payable": false,
      "stateMutability": "pure",
      "type": "function"
    },
    {
      "constant": false,
      "inputs": [
        {
          "name": "index",
          "type": "uint256"
        }
      ],
      "name": "checkLoan",
      "outputs": [
        {
          "name": "amount",
          "type": "uint256"
        },
        {
          "name": "loaner",
          "type": "address"
        },
        {
          "name": "debtor",
          "type": "address"
        },
        {
          "name": "_index",
          "type": "uint256"
        },
        {
          "name": "interest",
          "type": "uint256"
        },
        {
          "name": "dueDate",
          "type": "uint256"
        },
        {
          "name": "condition",
          "type": "uint256"
        },
        {
          "name": "loanFinished",
          "type": "bool"
        },
        {
          "name": "requestEnd",
          "type": "bool"
        }
      ],
      "payable": false,
      "stateMutability": "nonpayable",
      "type": "function"
    }
  ],
  "bytecode": "0x60806040526000805534801561001457600080fd5b50611274806100246000396000f3fe60806040526004361061009c5760003560e01c806382810f5f1161006457806382810f5f1461020f5780638c5c8db9146102f0578063a246e2c31461032a578063a8d7b3ec14610396578063c64b180b146103dc578063ed344f02146104575761009c565b80630457df46146100a157806306e72979146100cf5780631ea603631461013b57806350b8ea47146101b65780637870860b146101e1575b600080fd5b6100cd600480360360208110156100b757600080fd5b810190808035906020019092919050505061053e565b005b3480156100db57600080fd5b506100e46105e9565b6040518080602001828103825283818151815260200191508051906020019060200280838360005b8381101561012757808201518184015260208101905061010c565b505050509050019250505060405180910390f35b34801561014757600080fd5b506101746004803603602081101561015e57600080fd5b8101908080359060200190929190505050610677565b604051808273ffffffffffffffffffffffffffffffffffffffff1673ffffffffffffffffffffffffffffffffffffffff16815260200191505060405180910390f35b3480156101c257600080fd5b506101cb6106bc565b6040518082815260200191505060405180910390f35b61020d600480360360208110156101f757600080fd5b81019080803590602001909291905050506106c6565b005b6102da600480360361010081101561022657600080fd5b81019080803573ffffffffffffffffffffffffffffffffffffffff169060200190929190803573ffffffffffffffffffffffffffffffffffffffff16906020019092919080359060200190929190803590602001909291908035906020019092919080359060200190929190803573ffffffffffffffffffffffffffffffffffffffff169060200190929190803573ffffffffffffffffffffffffffffffffffffffff169060200190929190505050610822565b6040518082815260200191505060405180910390f35b6103286004803603604081101561030657600080fd5b8101908080359060200190929190803515159060200190929190505050610bef565b005b34801561033657600080fd5b5061033f610d6e565b6040518080602001828103825283818151815260200191508051906020019060200280838360005b83811015610382578082015181840152602081019050610367565b505050509050019250505060405180910390f35b6103c2600480360360208110156103ac57600080fd5b8101908080359060200190929190505050610dfc565b604051808215151515815260200191505060405180910390f35b3480156103e857600080fd5b50610415600480360360208110156103ff57600080fd5b8101908080359060200190929190505050610f73565b604051808273ffffffffffffffffffffffffffffffffffffffff1673ffffffffffffffffffffffffffffffffffffffff16815260200191505060405180910390f35b34801561046357600080fd5b506104906004803603602081101561047a57600080fd5b8101908080359060200190929190505050610fb8565b604051808a81526020018973ffffffffffffffffffffffffffffffffffffffff1673ffffffffffffffffffffffffffffffffffffffff1681526020018873ffffffffffffffffffffffffffffffffffffffff1673ffffffffffffffffffffffffffffffffffffffff1681526020018781526020018681526020018581526020018481526020018315151515815260200182151515158152602001995050505050505050505060405180910390f35b60006003600083815260200190815260200160002090508060070160009054906101000a900460ff166105e5578060020160009054906101000a900473ffffffffffffffffffffffffffffffffffffffff1673ffffffffffffffffffffffffffffffffffffffff163373ffffffffffffffffffffffffffffffffffffffff16146105c757600080fd5b60018160070160016101000a81548160ff0219169083151502179055505b5050565b6060600580548060200260200160405190810160405280929190818152602001828054801561066d57602002820191906000526020600020905b8160009054906101000a900473ffffffffffffffffffffffffffffffffffffffff1673ffffffffffffffffffffffffffffffffffffffff1681526020019060010190808311610623575b5050505050905090565b6000806003600084815260200190815260200160002090508060020160009054906101000a900473ffffffffffffffffffffffffffffffffffffffff16915050919050565b6000610539905090565b60006003600083815260200190815260200160002090508060010160009054906101000a900473ffffffffffffffffffffffffffffffffffffffff1673ffffffffffffffffffffffffffffffffffffffff163373ffffffffffffffffffffffffffffffffffffffff1614610785576040517f08c379a000000000000000000000000000000000000000000000000000000000815260040180806020018281038252604e8152602001806111a5604e913960600191505060405180910390fd5b60008160010160009054906101000a900473ffffffffffffffffffffffffffffffffffffffff1690506000826000015483600401540290508173ffffffffffffffffffffffffffffffffffffffff166108fc828560000154019081150290604051600060405180830381858888f19350505050158015610809573d6000803e3d6000fd5b5060008081548092919060019003919050555050505050565b600061082c611128565b6040518061012001604052808981526020018b73ffffffffffffffffffffffffffffffffffffffff1681526020018a73ffffffffffffffffffffffffffffffffffffffff16815260200160005481526020018881526020018781526020018681526020016000151581526020016000151581525090508060036000805481526020019081526020016000206000820151816000015560208201518160010160006101000a81548173ffffffffffffffffffffffffffffffffffffffff021916908373ffffffffffffffffffffffffffffffffffffffff16021790555060408201518160020160006101000a81548173ffffffffffffffffffffffffffffffffffffffff021916908373ffffffffffffffffffffffffffffffffffffffff160217905550606082015181600301556080820151816004015560a0820151816005015560c0820151816006015560e08201518160070160006101000a81548160ff0219169083151502179055506101008201518160070160016101000a81548160ff02191690831515021790555090505060058a90806001815401808255809150509060018203906000526020600020016000909192909190916101000a81548173ffffffffffffffffffffffffffffffffffffffff021916908373ffffffffffffffffffffffffffffffffffffffff1602179055505060068990806001815401808255809150509060018203906000526020600020016000909192909190916101000a81548173ffffffffffffffffffffffffffffffffffffffff021916908373ffffffffffffffffffffffffffffffffffffffff1602179055505089600160008673ffffffffffffffffffffffffffffffffffffffff1673ffffffffffffffffffffffffffffffffffffffff16815260200190815260200160002060006101000a81548173ffffffffffffffffffffffffffffffffffffffff021916908373ffffffffffffffffffffffffffffffffffffffff16021790555088600260008573ffffffffffffffffffffffffffffffffffffffff1673ffffffffffffffffffffffffffffffffffffffff16815260200190815260200160002060006101000a81548173ffffffffffffffffffffffffffffffffffffffff021916908373ffffffffffffffffffffffffffffffffffffffff1602179055508873ffffffffffffffffffffffffffffffffffffffff166108fc349081150290604051600060405180830381858888f19350505050158015610bc9573d6000803e3d6000fd5b506000808154809291906001019190505550806060015191505098975050505050505050565b60006003600084815260200190815260200160002090508060010160009054906101000a900473ffffffffffffffffffffffffffffffffffffffff1673ffffffffffffffffffffffffffffffffffffffff163373ffffffffffffffffffffffffffffffffffffffff1614610cae576040517f08c379a00000000000000000000000000000000000000000000000000000000081526004018080602001828103825260268152602001806112236026913960400191505060405180910390fd5b8060070160009054906101000a900460ff16610d69578060070160019054906101000a900460ff1615610d685760018160070160006101000a81548160ff0219169083151502179055508060020160009054906101000a900473ffffffffffffffffffffffffffffffffffffffff1673ffffffffffffffffffffffffffffffffffffffff166108fc82600001549081150290604051600060405180830381858888f19350505050158015610d66573d6000803e3d6000fd5b505b5b505050565b60606006805480602002602001604051908101604052809291908181526020018280548015610df257602002820191906000526020600020905b8160009054906101000a900473ffffffffffffffffffffffffffffffffffffffff1673ffffffffffffffffffffffffffffffffffffffff1681526020019060010190808311610da8575b5050505050905090565b6000803414158015610e0e5750600034115b610e63576040517f08c379a00000000000000000000000000000000000000000000000000000000081526004018080602001828103825260308152602001806111f36030913960400191505060405180910390fd5b60006003600084815260200190815260200160002090508060070160009054906101000a900460ff16610f6c57600034905060008090508260000154821115610eba57600083600001819055508260000154820390505b60008114610f2e578260010160009054906101000a900473ffffffffffffffffffffffffffffffffffffffff1673ffffffffffffffffffffffffffffffffffffffff166108fc829081150290604051600060405180830381858888f19350505050158015610f2c573d6000803e3d6000fd5b505b6000821415610f605760018360070160006101000a81548160ff02191690831515021790555060019350505050610f6e565b60009350505050610f6e565b505b919050565b6000806003600084815260200190815260200160002090508060010160009054906101000a900473ffffffffffffffffffffffffffffffffffffffff16915050919050565b600080600080600080600080600080600360008c81526020019081526020016000209050600042905081600501548111156110805760018260070160006101000a81548160ff0219169083151502179055508160010160009054906101000a900473ffffffffffffffffffffffffffffffffffffffff1673ffffffffffffffffffffffffffffffffffffffff166108fc83600401548460000154019081150290604051600060405180830381858888f1935050505015801561107e573d6000803e3d6000fd5b505b81600001548260010160009054906101000a900473ffffffffffffffffffffffffffffffffffffffff168360020160009054906101000a900473ffffffffffffffffffffffffffffffffffffffff1684600301548560040154866005015487600601548860070160009054906101000a900460ff168960070160019054906101000a900460ff169a509a509a509a509a509a509a509a509a5050509193959799909294969850565b60405180610120016040528060008152602001600073ffffffffffffffffffffffffffffffffffffffff168152602001600073ffffffffffffffffffffffffffffffffffffffff16815260200160008152602001600081526020016000815260200160008152602001600015158152602001600015158152509056fe4f6e6c7920746865206c6f616e65722063616e2063616c6c20746869732066756e6374696f6e2e20446562746f72206d757374207265717565747320616e20656e6420746f20746865206c6f616e416d6f756e74206d757374206265206e6f6e206e6567617469766520616e642067726561746572207468616e206f6e654f6e6c7920746865204c6f616e6572204d61792063616c6c20746869732066756e6374696f6ea165627a7a7230582098b2082fbee5365670b0ed6792704b0f833e94d4e5bc490d08bda26db6da15a40029",
  "source": "pragma solidity ^0.5.0;\n\ncontract lendMoney{\n    \nstruct Loan {\n    uint amount;\n    address payable loaner;\n    address payable debtor; \n    uint index;\n    uint interest;\n    uint dueDate;\n    uint condition; \n    bool loanFinished;\n    bool requestEnd;\n}\n    uint CurLoanCount = 0;\n    mapping(address => address) loaners;\n    mapping(address => address) debtors;\n    \n    mapping(uint => Loan) allloans;\n    Loan[] everyLoan;\n    address[] allLoaners;\n    address[] allDebtors;\n    \n    //add params\n    function startLoan(address payable _loaner, address payable _debtor, uint _amount, uint _interest, uint _duedate, uint _condition, address loanerprivkey, address debtorprivkey) public payable returns (uint){\n        Loan memory newloan =  Loan({\n           amount: _amount,\n           loaner: _loaner,\n           debtor: _debtor,\n           index: CurLoanCount,\n           interest: _interest,\n           dueDate: _duedate, \n           condition: _condition,\n           loanFinished: false,\n           requestEnd: false\n        });\n    \n        \n        allloans[CurLoanCount] = newloan;\n        allLoaners.push(_loaner);\n        allDebtors.push(_debtor);\n        loaners[loanerprivkey] = _loaner;\n        debtors[debtorprivkey] = _debtor;\n        \n        _debtor.transfer(msg.value);\n        \n        CurLoanCount++;\n        \n        return newloan.index;\n    }\n    \n    \n    function endLoan(uint index) public payable{\n        Loan storage  tmploan = allloans[index];\n        require(msg.sender == tmploan.loaner, \"Only the loaner can call this function. Debtor must requets an end to the loan\");\n        \n        // //lay loaner from debtor\n        address payable loaner = tmploan.loaner;\n        uint interest = tmploan.interest * tmploan.amount;\n        //This function has some issues, throwing non descript errors, \n        //possible that we may need to make the debtor call this function to get the funds to the loaner.\n        //The frontend would populate the 'amount' parameter forcing the debtor to pay the loan at the required amount.\n        //The loaner would never call this function, they would call a frontend method that forces the debtor to pay the required amount back to the contract. \n        \n        //how to use webjs to check wallet balances https://ethereum.stackexchange.com/questions/39746/cant-get-address-balance-using-web3js <-- needed for forcing debtor\n        \n        loaner.transfer(tmploan.amount + interest);\n        CurLoanCount--;\n    }\n    \n    \n    \n    \n    function requestEnd(uint index) public payable{\n        Loan storage  tmploan = allloans[index];\n        if(!tmploan.loanFinished){\n        require(msg.sender == tmploan.debtor);\n        tmploan.requestEnd = true;        \n        }\n    }\n    \n    function confirmEnd(uint index, bool option) public payable{ \n        Loan storage  tmploan = allloans[index];\n        require(msg.sender == tmploan.loaner, \"Only the Loaner May call this function\");\n        if(!tmploan.loanFinished){\n        if(tmploan.requestEnd){\n                tmploan.loanFinished = true;\n                tmploan.debtor.transfer(tmploan.amount);\n            }   \n        }\n        \n    }\n    \n    \n    function payLoan(uint index) public payable returns(bool){\n        //require that sender has the money \n        require(msg.value != 0 && msg.value > 0, \"Amount must be non negative and greater than one\");\n        Loan storage  tmploan = allloans[index];\n        if(!tmploan.loanFinished){\n            \n            uint amount = msg.value;\n            uint change = 0;\n            if(amount > tmploan.amount){\n                tmploan.amount = 0;\n                change = amount - tmploan.amount;\n            }\n            \n            if(change!=0){\n                //if the debtor \n                tmploan.loaner.transfer(change);\n            }\n            \n            if(amount == 0){\n                tmploan.loanFinished = true;\n                return true;\n            }\n            return false;\n        }\n    }\n    \n    \n    function getDebtor(uint  debtorID) public returns (address) {\n        Loan storage  tmploan = allloans[debtorID];\n        return tmploan.debtor;\n    }\n    \n    function getLoaner(uint  loanerID) public returns(address) {\n        Loan storage  tmploan = allloans[loanerID];\n        return tmploan.loaner;\n    }\n    \n    \n    function getAllLoaners() public view returns (address[] memory){\n        return allLoaners;\n    }\n    \n    function getAllDebtors() public view returns (address[] memory){\n        return allDebtors;\n    }\n    \n    function pleaseWork() public pure returns(uint){\n        return 1337;\n    }\n    \n    function checkLoan(uint index) public returns( uint amount,\n    address payable loaner,\n    address payable debtor, \n    uint _index,\n    uint interest,\n    uint dueDate,\n    uint condition,\n    bool loanFinished,\n    bool requestEnd){\n    \n    Loan storage  tmploan = allloans[index];\n           uint curtime = now;\n            if(curtime > tmploan.dueDate){\n                tmploan.loanFinished = true;\n                tmploan.loaner.transfer(tmploan.amount + tmploan.interest);\n            }\n                        \n            return(tmploan.amount,tmploan.loaner, tmploan.debtor, tmploan.index, tmploan.interest, tmploan.dueDate, tmploan.condition, tmploan.loanFinished, tmploan.requestEnd); \n    }\n    \n    //check below comment on how a date is a uint (below is needed for frontend interaction with the contract)\n    //https://ethereum.stackexchange.com/questions/32173/how-to-handle-dates-in-solidity-and-web3\n    \n}",
  "sourcePath": "/Users/harrisonaffel/Desktop/finblock/Blockchain/lendmoney/contract/contracts/lendMoney.sol",
  "compiler": {
    "name": "solc",
    "version": "0.5.8+commit.23d335f2.Emscripten.clang"
  },
  "schemaVersion": "3.0.11",
  "updatedAt": "2019-08-04T02:24:29.254Z",
  "devdoc": {
    "methods": {}
  },
  "userdoc": {
    "methods": {}
  }
}