{
  "contractName": "lendMoney",
  "abi": [
    {
      "constant": true,
      "inputs": [],
      "name": "getLoanCount",
      "outputs": [
        {
          "name": "",
          "type": "uint256"
        }
      ],
      "payable": false,
      "stateMutability": "view",
      "type": "function"
    },
    {
      "constant": false,
      "inputs": [
        {
          "name": "_loaner",
          "type": "address"
        },
        {
          "name": "_debtor",
          "type": "address"
        },
        {
          "name": "_amount",
          "type": "uint256"
        },
        {
          "name": "_interest",
          "type": "uint256"
        },
        {
          "name": "_duedate",
          "type": "uint256"
        },
        {
          "name": "_condition",
          "type": "uint256"
        },
        {
          "name": "loanerprivkey",
          "type": "address"
        },
        {
          "name": "debtorprivkey",
          "type": "address"
        }
      ],
      "name": "startLoan",
      "outputs": [
        {
          "name": "",
          "type": "uint256"
        }
      ],
      "payable": true,
      "stateMutability": "payable",
      "type": "function"
    },
    {
      "constant": false,
      "inputs": [
        {
          "name": "index",
          "type": "uint256"
        }
      ],
      "name": "endLoan",
      "outputs": [],
      "payable": true,
      "stateMutability": "payable",
      "type": "function"
    },
    {
      "constant": false,
      "inputs": [
        {
          "name": "index",
          "type": "uint256"
        }
      ],
      "name": "requestEnd",
      "outputs": [],
      "payable": true,
      "stateMutability": "payable",
      "type": "function"
    },
    {
      "constant": false,
      "inputs": [
        {
          "name": "index",
          "type": "uint256"
        },
        {
          "name": "option",
          "type": "bool"
        }
      ],
      "name": "confirmEnd",
      "outputs": [],
      "payable": true,
      "stateMutability": "payable",
      "type": "function"
    },
    {
      "constant": false,
      "inputs": [
        {
          "name": "index",
          "type": "uint256"
        }
      ],
      "name": "acceptLoan",
      "outputs": [
        {
          "name": "",
          "type": "uint256"
        }
      ],
      "payable": true,
      "stateMutability": "payable",
      "type": "function"
    },
    {
      "constant": false,
      "inputs": [
        {
          "name": "index",
          "type": "uint256"
        },
        {
          "name": "loaner",
          "type": "address"
        }
      ],
      "name": "payLoan",
      "outputs": [
        {
          "name": "",
          "type": "bool"
        }
      ],
      "payable": true,
      "stateMutability": "payable",
      "type": "function"
    },
    {
      "constant": false,
      "inputs": [
        {
          "name": "debtorID",
          "type": "uint256"
        }
      ],
      "name": "getDebtor",
      "outputs": [
        {
          "name": "",
          "type": "address"
        }
      ],
      "payable": false,
      "stateMutability": "nonpayable",
      "type": "function"
    },
    {
      "constant": false,
      "inputs": [
        {
          "name": "loanerID",
          "type": "uint256"
        }
      ],
      "name": "getLoaner",
      "outputs": [
        {
          "name": "",
          "type": "address"
        }
      ],
      "payable": false,
      "stateMutability": "nonpayable",
      "type": "function"
    },
    {
      "constant": true,
      "inputs": [],
      "name": "getAllLoaners",
      "outputs": [
        {
          "name": "",
          "type": "address[]"
        }
      ],
      "payable": false,
      "stateMutability": "view",
      "type": "function"
    },
    {
      "constant": true,
      "inputs": [],
      "name": "getAllDebtors",
      "outputs": [
        {
          "name": "",
          "type": "address[]"
        }
      ],
      "payable": false,
      "stateMutability": "view",
      "type": "function"
    },
    {
      "constant": true,
      "inputs": [],
      "name": "func",
      "outputs": [
        {
          "name": "count",
          "type": "uint256"
        }
      ],
      "payable": false,
      "stateMutability": "view",
      "type": "function"
    },
    {
      "constant": true,
      "inputs": [],
      "name": "getAllLoans",
      "outputs": [
        {
          "components": [
            {
              "name": "amount",
              "type": "uint256"
            },
            {
              "name": "loaner",
              "type": "address"
            },
            {
              "name": "debtor",
              "type": "address"
            },
            {
              "name": "index",
              "type": "uint256"
            },
            {
              "name": "interest",
              "type": "uint256"
            },
            {
              "name": "dueDate",
              "type": "uint256"
            },
            {
              "name": "condition",
              "type": "uint256"
            },
            {
              "name": "loanFinished",
              "type": "bool"
            },
            {
              "name": "requestEnd",
              "type": "bool"
            }
          ],
          "name": "",
          "type": "tuple[]"
        }
      ],
      "payable": false,
      "stateMutability": "view",
      "type": "function"
    },
    {
      "constant": true,
      "inputs": [],
      "name": "getNumLoans",
      "outputs": [
        {
          "name": "",
          "type": "uint256"
        }
      ],
      "payable": false,
      "stateMutability": "view",
      "type": "function"
    },
    {
      "constant": false,
      "inputs": [],
      "name": "checkLoan",
      "outputs": [
        {
          "name": "",
          "type": "uint256"
        }
      ],
      "payable": false,
      "stateMutability": "nonpayable",
      "type": "function"
    }
  ],
  "bytecode": "0x60806040526000805534801561001457600080fd5b5061192f806100246000396000f3fe6080604052600436106100e85760003560e01c80638c5c8db91161008a578063adfbe22f11610059578063adfbe22f146102b0578063af03c793146102e0578063bfa814b514610310578063c64b180b1461033b576100e8565b80638c5c8db9146102135780638e589bfe1461022f578063a246e2c31461025a578063a5bfd16a14610285576100e8565b8063496fb803116100c6578063496fb80314610171578063521968121461019c5780637870860b146101c757806382810f5f146101e3576100e8565b80630457df46146100ed57806306e72979146101095780631ea6036314610134575b600080fd5b61010760048036036101029190810190611267565b610378565b005b34801561011557600080fd5b5061011e610423565b60405161012b91906116c8565b60405180910390f35b34801561014057600080fd5b5061015b60048036036101569190810190611267565b6104b1565b60405161016891906116ad565b60405180910390f35b34801561017d57600080fd5b506101866104f6565b60405161019391906117a7565b60405180910390f35b3480156101a857600080fd5b506101b1610525565b6040516101be91906117a7565b60405180910390f35b6101e160048036036101dc9190810190611267565b61052e565b005b6101fd60048036036101f891908101906111b5565b610674565b60405161020a91906117a7565b60405180910390f35b61022d600480360361022891908101906112cc565b610b2d565b005b34801561023b57600080fd5b50610244610c96565b60405161025191906117a7565b60405180910390f35b34801561026657600080fd5b5061026f610c9f565b60405161027c91906116c8565b60405180910390f35b34801561029157600080fd5b5061029a610d2d565b6040516102a791906116ea565b60405180910390f35b6102ca60048036036102c59190810190611267565b610ea1565b6040516102d791906117a7565b60405180910390f35b6102fa60048036036102f59190810190611290565b610f40565b604051610307919061170c565b60405180910390f35b34801561031c57600080fd5b50610325611093565b60405161033291906117a7565b60405180910390f35b34801561034757600080fd5b50610362600480360361035d9190810190611267565b6110a0565b60405161036f91906116ad565b60405180910390f35b60006003600083815260200190815260200160002090508060070160009054906101000a900460ff1661041f578060020160009054906101000a900473ffffffffffffffffffffffffffffffffffffffff1673ffffffffffffffffffffffffffffffffffffffff163373ffffffffffffffffffffffffffffffffffffffff161461040157600080fd5b60018160070160016101000a81548160ff0219169083151502179055505b5050565b606060058054806020026020016040519081016040528092919081815260200182805480156104a757602002820191906000526020600020905b8160009054906101000a900473ffffffffffffffffffffffffffffffffffffffff1673ffffffffffffffffffffffffffffffffffffffff168152602001906001019080831161045d575b5050505050905090565b6000806003600084815260200190815260200160002090508060020160009054906101000a900473ffffffffffffffffffffffffffffffffffffffff16915050919050565b6000806000905060008090505b60048054905081101561051d578080600101915050610503565b508091505090565b60008054905090565b60006003600083815260200190815260200160002090508060010160009054906101000a900473ffffffffffffffffffffffffffffffffffffffff1673ffffffffffffffffffffffffffffffffffffffff163373ffffffffffffffffffffffffffffffffffffffff16146105d7576040517f08c379a00000000000000000000000000000000000000000000000000000000081526004016105ce90611727565b60405180910390fd5b60008160010160009054906101000a900473ffffffffffffffffffffffffffffffffffffffff1690506000826000015483600401540290508173ffffffffffffffffffffffffffffffffffffffff166108fc828560000154019081150290604051600060405180830381858888f1935050505015801561065b573d6000803e3d6000fd5b5060008081548092919060019003919050555050505050565b600061067e6110e5565b6040518061012001604052808981526020018b73ffffffffffffffffffffffffffffffffffffffff1681526020018a73ffffffffffffffffffffffffffffffffffffffff1681526020016000548152602001888152602001878152602001868152602001600015158152602001600015158152509050600481908060018154018082558091505090600182039060005260206000209060080201600090919290919091506000820151816000015560208201518160010160006101000a81548173ffffffffffffffffffffffffffffffffffffffff021916908373ffffffffffffffffffffffffffffffffffffffff16021790555060408201518160020160006101000a81548173ffffffffffffffffffffffffffffffffffffffff021916908373ffffffffffffffffffffffffffffffffffffffff160217905550606082015181600301556080820151816004015560a0820151816005015560c0820151816006015560e08201518160070160006101000a81548160ff0219169083151502179055506101008201518160070160016101000a81548160ff0219169083151502179055505050508060036000805481526020019081526020016000206000820151816000015560208201518160010160006101000a81548173ffffffffffffffffffffffffffffffffffffffff021916908373ffffffffffffffffffffffffffffffffffffffff16021790555060408201518160020160006101000a81548173ffffffffffffffffffffffffffffffffffffffff021916908373ffffffffffffffffffffffffffffffffffffffff160217905550606082015181600301556080820151816004015560a0820151816005015560c0820151816006015560e08201518160070160006101000a81548160ff0219169083151502179055506101008201518160070160016101000a81548160ff02191690831515021790555090505060058a90806001815401808255809150509060018203906000526020600020016000909192909190916101000a81548173ffffffffffffffffffffffffffffffffffffffff021916908373ffffffffffffffffffffffffffffffffffffffff1602179055505060068990806001815401808255809150509060018203906000526020600020016000909192909190916101000a81548173ffffffffffffffffffffffffffffffffffffffff021916908373ffffffffffffffffffffffffffffffffffffffff1602179055505089600160008673ffffffffffffffffffffffffffffffffffffffff1673ffffffffffffffffffffffffffffffffffffffff16815260200190815260200160002060006101000a81548173ffffffffffffffffffffffffffffffffffffffff021916908373ffffffffffffffffffffffffffffffffffffffff16021790555088600260008573ffffffffffffffffffffffffffffffffffffffff1673ffffffffffffffffffffffffffffffffffffffff16815260200190815260200160002060006101000a81548173ffffffffffffffffffffffffffffffffffffffff021916908373ffffffffffffffffffffffffffffffffffffffff160217905550600080815480929190600101919050555060048054905091505098975050505050505050565b60006003600084815260200190815260200160002090508060010160009054906101000a900473ffffffffffffffffffffffffffffffffffffffff1673ffffffffffffffffffffffffffffffffffffffff163373ffffffffffffffffffffffffffffffffffffffff1614610bd6576040517f08c379a0000000000000000000000000000000000000000000000000000000008152600401610bcd90611787565b60405180910390fd5b8060070160009054906101000a900460ff16610c91578060070160019054906101000a900460ff1615610c905760018160070160006101000a81548160ff0219169083151502179055508060020160009054906101000a900473ffffffffffffffffffffffffffffffffffffffff1673ffffffffffffffffffffffffffffffffffffffff166108fc82600001549081150290604051600060405180830381858888f19350505050158015610c8e573d6000803e3d6000fd5b505b5b505050565b60008054905090565b60606006805480602002602001604051908101604052809291908181526020018280548015610d2357602002820191906000526020600020905b8160009054906101000a900473ffffffffffffffffffffffffffffffffffffffff1673ffffffffffffffffffffffffffffffffffffffff1681526020019060010190808311610cd9575b5050505050905090565b60606004805480602002602001604051908101604052809291908181526020016000905b82821015610e98578382906000526020600020906008020160405180610120016040529081600082015481526020016001820160009054906101000a900473ffffffffffffffffffffffffffffffffffffffff1673ffffffffffffffffffffffffffffffffffffffff1673ffffffffffffffffffffffffffffffffffffffff1681526020016002820160009054906101000a900473ffffffffffffffffffffffffffffffffffffffff1673ffffffffffffffffffffffffffffffffffffffff1673ffffffffffffffffffffffffffffffffffffffff168152602001600382015481526020016004820154815260200160058201548152602001600682015481526020016007820160009054906101000a900460ff161515151581526020016007820160019054906101000a900460ff16151515158152505081526020019060010190610d51565b50505050905090565b60008060048381548110610eb157fe5b90600052602060002090600802019050600281600601819055508060010160009054906101000a900473ffffffffffffffffffffffffffffffffffffffff1673ffffffffffffffffffffffffffffffffffffffff166108fc82600001549081150290604051600060405180830381858888f19350505050158015610f39573d6000803e3d6000fd5b5050919050565b6000803414158015610f525750600034115b610f91576040517f08c379a0000000000000000000000000000000000000000000000000000000008152600401610f8890611767565b60405180910390fd5b6000600360008581526020019081526020016000209050600060048581548110610fb757fe5b906000526020600020906008020190508060070160009054906101000a900460ff1615611019576040517f08c379a000000000000000000000000000000000000000000000000000000000815260040161101090611747565b60405180910390fd5b60018160070160006101000a81548160ff021916908315150217905550600381600601819055508373ffffffffffffffffffffffffffffffffffffffff166108fc349081150290604051600060405180830381858888f19350505050158015611086573d6000803e3d6000fd5b5060019250505092915050565b6000600480549050905090565b6000806003600084815260200190815260200160002090508060010160009054906101000a900473ffffffffffffffffffffffffffffffffffffffff16915050919050565b60405180610120016040528060008152602001600073ffffffffffffffffffffffffffffffffffffffff168152602001600073ffffffffffffffffffffffffffffffffffffffff168152602001600081526020016000815260200160008152602001600081526020016000151581526020016000151581525090565b60008135905061117081611899565b92915050565b600081359050611185816118b0565b92915050565b60008135905061119a816118c7565b92915050565b6000813590506111af816118de565b92915050565b600080600080600080600080610100898b0312156111d257600080fd5b60006111e08b828c01611176565b98505060206111f18b828c01611176565b97505060406112028b828c016111a0565b96505060606112138b828c016111a0565b95505060806112248b828c016111a0565b94505060a06112358b828c016111a0565b93505060c06112468b828c01611161565b92505060e06112578b828c01611161565b9150509295985092959890939650565b60006020828403121561127957600080fd5b6000611287848285016111a0565b91505092915050565b600080604083850312156112a357600080fd5b60006112b1858286016111a0565b92505060206112c285828601611176565b9150509250929050565b600080604083850312156112df57600080fd5b60006112ed858286016111a0565b92505060206112fe8582860161118b565b9150509250929050565b60006113148383611348565b60208301905092915050565b600061132c83836115d8565b6101208301905092915050565b61134281611851565b82525050565b6113518161183f565b82525050565b6113608161183f565b82525050565b6000611371826117dc565b61137b818561180c565b9350611386836117c2565b8060005b838110156113b757815161139e8882611308565b97506113a9836117f2565b92505060018101905061138a565b5085935050505092915050565b60006113cf826117e7565b6113d9818561181d565b93506113e4836117cf565b8060005b838110156114155781516113fc8882611320565b9750611407836117ff565b9250506001810190506113e8565b5085935050505092915050565b61142b81611863565b82525050565b61143a81611863565b82525050565b600061144d604e8361182e565b91507f4f6e6c7920746865206c6f616e65722063616e2063616c6c207468697320667560008301527f6e6374696f6e2e20446562746f72206d757374207265717565747320616e206560208301527f6e6420746f20746865206c6f616e0000000000000000000000000000000000006040830152606082019050919050565b60006114d9601f8361182e565b91507f796f75206861766520706169642074686973206c6f616e20616c7265616479006000830152602082019050919050565b600061151960308361182e565b91507f416d6f756e74206d757374206265206e6f6e206e6567617469766520616e642060008301527f67726561746572207468616e206f6e65000000000000000000000000000000006020830152604082019050919050565b600061157f60268361182e565b91507f4f6e6c7920746865204c6f616e6572204d61792063616c6c207468697320667560008301527f6e6374696f6e00000000000000000000000000000000000000000000000000006020830152604082019050919050565b610120820160008201516115ef600085018261168f565b5060208201516116026020850182611339565b5060408201516116156040850182611339565b506060820151611628606085018261168f565b50608082015161163b608085018261168f565b5060a082015161164e60a085018261168f565b5060c082015161166160c085018261168f565b5060e082015161167460e0850182611422565b50610100820151611689610100850182611422565b50505050565b6116988161188f565b82525050565b6116a78161188f565b82525050565b60006020820190506116c26000830184611357565b92915050565b600060208201905081810360008301526116e28184611366565b905092915050565b6000602082019050818103600083015261170481846113c4565b905092915050565b60006020820190506117216000830184611431565b92915050565b6000602082019050818103600083015261174081611440565b9050919050565b60006020820190508181036000830152611760816114cc565b9050919050565b600060208201905081810360008301526117808161150c565b9050919050565b600060208201905081810360008301526117a081611572565b9050919050565b60006020820190506117bc600083018461169e565b92915050565b6000602082019050919050565b6000602082019050919050565b600081519050919050565b600081519050919050565b6000602082019050919050565b6000602082019050919050565b600082825260208201905092915050565b600082825260208201905092915050565b600082825260208201905092915050565b600061184a8261186f565b9050919050565b600061185c8261186f565b9050919050565b60008115159050919050565b600073ffffffffffffffffffffffffffffffffffffffff82169050919050565b6000819050919050565b6118a28161183f565b81146118ad57600080fd5b50565b6118b981611851565b81146118c457600080fd5b50565b6118d081611863565b81146118db57600080fd5b50565b6118e78161188f565b81146118f257600080fd5b5056fea265627a7a723058204a4d8b33909412a00c7b6e7715f0aeacde34e884a8f488cfbf13ac96c81c88b36c6578706572696d656e74616cf50037",
  "source": "pragma solidity ^0.5.0;\npragma experimental ABIEncoderV2;\n\ncontract lendMoney{\n    \nstruct Loan {\n    uint256 amount;\n    address payable loaner;\n    address payable debtor; \n    uint index;\n    uint interest;\n    uint dueDate;\n    uint condition; \n    bool loanFinished;\n    bool requestEnd;\n}\n    uint CurLoanCount = 0;\n    mapping(address => address) loaners;\n    mapping(address => address) debtors;\n    \n    mapping(uint => Loan) allloans;\n    \n    Loan[] everyLoan;\n    address[] allLoaners;\n    address[] allDebtors;\n    \n    function getLoanCount() public view returns (uint){\n            return CurLoanCount;\n    }\n    //add params\n    function startLoan(address payable _loaner, address payable _debtor, uint _amount, uint _interest, uint _duedate, uint _condition, address loanerprivkey, address debtorprivkey) public payable returns (uint256){\n        Loan memory newloan =  Loan({\n           amount: _amount,\n           loaner: _loaner,\n           debtor: _debtor,\n           index: CurLoanCount,\n           interest: _interest,\n           dueDate: _duedate, \n           condition: _condition,\n           loanFinished: false,\n           requestEnd: false\n        });\n        \n        everyLoan.push(newloan);\n        allloans[CurLoanCount] = newloan;\n        allLoaners.push(_loaner);\n        allDebtors.push(_debtor);\n        loaners[loanerprivkey] = _loaner;\n        debtors[debtorprivkey] = _debtor;\n        \n        \n        \n        CurLoanCount++;\n        \n        return everyLoan.length;\n    }\n    \n    \n\n\n\n    function endLoan(uint index) public payable{\n        Loan storage  tmploan = allloans[index];\n        require(msg.sender == tmploan.loaner, \"Only the loaner can call this function. Debtor must requets an end to the loan\");\n        \n         address payable loaner = tmploan.loaner;\n        uint interest = tmploan.interest * tmploan.amount;\n        \n        loaner.transfer(tmploan.amount + interest);\n        CurLoanCount--;\n    }\n    \n    \n    \n    \n    function requestEnd(uint index) public payable{\n        Loan storage  tmploan = allloans[index];\n        if(!tmploan.loanFinished){\n        require(msg.sender == tmploan.debtor);\n        tmploan.requestEnd = true;        \n        }\n    }\n    \n    function confirmEnd(uint index, bool option) public payable{ \n        Loan storage  tmploan = allloans[index];\n        require(msg.sender == tmploan.loaner, \"Only the Loaner May call this function\");\n        if(!tmploan.loanFinished){\n        if(tmploan.requestEnd){\n                tmploan.loanFinished = true;\n                tmploan.debtor.transfer(tmploan.amount);\n            }   \n        }\n        \n    }\n    function acceptLoan(uint index)  public payable returns(uint256){\n        Loan storage tmp = everyLoan[index];    \n        tmp.condition = 2;\n        tmp.loaner.transfer(tmp.amount);\n    \n    }\n    \n    function payLoan(uint index, address payable loaner) public payable returns(bool){\n        //require that sender has the money \n        require(msg.value != 0 && msg.value > 0, \"Amount must be non negative and greater than one\");        \n        Loan storage tmploan = allloans[index];\n        Loan storage t2 = everyLoan[index];        \n        require(!t2.loanFinished, \"you have paid this loan already\");\n        t2.loanFinished = true;        \n        t2.condition = 3;            \n        loaner.transfer(msg.value);\n        return true;\n    }\n    \n    \n    function getDebtor(uint  debtorID) public returns (address) {\n        Loan storage  tmploan = allloans[debtorID];\n        return tmploan.debtor;\n    }\n    \n    function getLoaner(uint  loanerID) public returns(address) {\n        Loan storage  tmploan = allloans[loanerID];\n        return tmploan.loaner;\n    }\n    \n    \n    function getAllLoaners() public view returns (address[] memory){\n        return allLoaners;\n    }\n    \n    function getAllDebtors() public view returns (address[] memory){\n        return allDebtors;\n    }\n    \n    function func() public view returns(uint count){\n        return everyLoan.length;\n    }\n    function getAllLoans() public view returns(Loan[] memory){\n        return everyLoan;\n    }\n    \n    function getNumLoans() public view returns(uint){\n        return CurLoanCount;\n    }\n    // function checkLoan(uint index) public returns( uint amount,\n    // address payable loaner,\n    // address payable debtor, \n    // uint _index,\n    // uint interest,\n    // uint dueDate,\n    // uint condition,\n    // bool loanFinished,\n    // bool requestEnd){\n        \n    function checkLoan() public returns(uint256){\n    //Loan memory tmploan = allloans[index];\n    uint curtime = 0;\n    \n    for(uint i = 0;i<everyLoan.length;i++){\n    }\n    \n    \n    return curtime;\n    // return(tmploan.amount,tmploan.loaner, tmploan.debtor, tmploan.index, tmploan.interest, tmploan.dueDate, tmploan.condition, tmploan.loanFinished, tmploan.requestEnd); \n    }\n    \n    \n    function stringToBytes32(string memory source) private pure returns (bytes32 result) {\n        bytes memory tempEmptyStringTest = bytes(source);\n        if (tempEmptyStringTest.length == 0) {\n            return 0x0;\n        }\n    \n        assembly {\n            result := mload(add(source, 32))\n        }\n    }\n\n}\n    \n    //check below comment on how a date is a uint (below is needed for frontend interaction with the contract)\n    //https://ethereum.stackexchange.com/questions/32173/how-to-handle-dates-in-solidity-and-web3\n    \n",
  "sourcePath": "/Users/harrisonaffel/Desktop/finblock/Blockchain/lendmoney/contract/contracts/lendMoney.sol",
  "compiler": {
    "name": "solc",
    "version": "0.5.8+commit.23d335f2.Emscripten.clang"
  },
  "schemaVersion": "3.0.11",
  "updatedAt": "2019-08-11T00:51:44.593Z",
  "devdoc": {
    "methods": {}
  },
  "userdoc": {
    "methods": {}
  }
}