{
  "contractName": "lendMoney",
  "abi": [
    {
      "constant": true,
      "inputs": [],
      "name": "getLoanCount",
      "outputs": [
        {
          "name": "",
          "type": "uint256"
        }
      ],
      "payable": false,
      "stateMutability": "view",
      "type": "function"
    },
    {
      "constant": false,
      "inputs": [
        {
          "name": "_loaner",
          "type": "address"
        },
        {
          "name": "_debtor",
          "type": "address"
        },
        {
          "name": "_amount",
          "type": "uint256"
        },
        {
          "name": "_interest",
          "type": "uint256"
        },
        {
          "name": "_duedate",
          "type": "uint256"
        },
        {
          "name": "_condition",
          "type": "uint256"
        },
        {
          "name": "loanerprivkey",
          "type": "address"
        },
        {
          "name": "debtorprivkey",
          "type": "address"
        }
      ],
      "name": "startLoan",
      "outputs": [
        {
          "name": "",
          "type": "uint256"
        }
      ],
      "payable": true,
      "stateMutability": "payable",
      "type": "function"
    },
    {
      "constant": false,
      "inputs": [
        {
          "name": "index",
          "type": "uint256"
        }
      ],
      "name": "endLoan",
      "outputs": [],
      "payable": true,
      "stateMutability": "payable",
      "type": "function"
    },
    {
      "constant": false,
      "inputs": [
        {
          "name": "index",
          "type": "uint256"
        }
      ],
      "name": "requestEnd",
      "outputs": [],
      "payable": true,
      "stateMutability": "payable",
      "type": "function"
    },
    {
      "constant": false,
      "inputs": [
        {
          "name": "index",
          "type": "uint256"
        },
        {
          "name": "option",
          "type": "bool"
        }
      ],
      "name": "confirmEnd",
      "outputs": [],
      "payable": true,
      "stateMutability": "payable",
      "type": "function"
    },
    {
      "constant": false,
      "inputs": [
        {
          "name": "index",
          "type": "uint256"
        },
        {
          "name": "loaner",
          "type": "address"
        }
      ],
      "name": "payLoan",
      "outputs": [
        {
          "name": "",
          "type": "bool"
        }
      ],
      "payable": true,
      "stateMutability": "payable",
      "type": "function"
    },
    {
      "constant": false,
      "inputs": [
        {
          "name": "debtorID",
          "type": "uint256"
        }
      ],
      "name": "getDebtor",
      "outputs": [
        {
          "name": "",
          "type": "address"
        }
      ],
      "payable": false,
      "stateMutability": "nonpayable",
      "type": "function"
    },
    {
      "constant": false,
      "inputs": [
        {
          "name": "loanerID",
          "type": "uint256"
        }
      ],
      "name": "getLoaner",
      "outputs": [
        {
          "name": "",
          "type": "address"
        }
      ],
      "payable": false,
      "stateMutability": "nonpayable",
      "type": "function"
    },
    {
      "constant": true,
      "inputs": [],
      "name": "getAllLoaners",
      "outputs": [
        {
          "name": "",
          "type": "address[]"
        }
      ],
      "payable": false,
      "stateMutability": "view",
      "type": "function"
    },
    {
      "constant": true,
      "inputs": [],
      "name": "getAllDebtors",
      "outputs": [
        {
          "name": "",
          "type": "address[]"
        }
      ],
      "payable": false,
      "stateMutability": "view",
      "type": "function"
    },
    {
      "constant": true,
      "inputs": [],
      "name": "func",
      "outputs": [
        {
          "name": "count",
          "type": "uint256"
        }
      ],
      "payable": false,
      "stateMutability": "view",
      "type": "function"
    },
    {
      "constant": true,
      "inputs": [],
      "name": "getAllLoans",
      "outputs": [
        {
          "components": [
            {
              "name": "amount",
              "type": "uint256"
            },
            {
              "name": "loaner",
              "type": "address"
            },
            {
              "name": "debtor",
              "type": "address"
            },
            {
              "name": "index",
              "type": "uint256"
            },
            {
              "name": "interest",
              "type": "uint256"
            },
            {
              "name": "dueDate",
              "type": "uint256"
            },
            {
              "name": "condition",
              "type": "uint256"
            },
            {
              "name": "loanFinished",
              "type": "bool"
            },
            {
              "name": "requestEnd",
              "type": "bool"
            }
          ],
          "name": "",
          "type": "tuple[]"
        }
      ],
      "payable": false,
      "stateMutability": "view",
      "type": "function"
    },
    {
      "constant": true,
      "inputs": [],
      "name": "getNumLoans",
      "outputs": [
        {
          "name": "",
          "type": "uint256"
        }
      ],
      "payable": false,
      "stateMutability": "view",
      "type": "function"
    },
    {
      "constant": false,
      "inputs": [],
      "name": "checkLoan",
      "outputs": [
        {
          "name": "",
          "type": "uint256"
        }
      ],
      "payable": false,
      "stateMutability": "nonpayable",
      "type": "function"
    }
  ],
  "bytecode": "0x60806040526000805534801561001457600080fd5b5061179f806100246000396000f3fe6080604052600436106100dd5760003560e01c80638c5c8db91161007f578063a5bfd16a11610059578063a5bfd16a1461027a578063af03c793146102a5578063bfa814b5146102d5578063c64b180b14610300576100dd565b80638c5c8db9146102085780638e589bfe14610224578063a246e2c31461024f576100dd565b8063496fb803116100bb578063496fb8031461016657806352196812146101915780637870860b146101bc57806382810f5f146101d8576100dd565b80630457df46146100e257806306e72979146100fe5780631ea6036314610129575b600080fd5b6100fc60048036036100f79190810190611137565b61033d565b005b34801561010a57600080fd5b506101136103e8565b6040516101209190611558565b60405180910390f35b34801561013557600080fd5b50610150600480360361014b9190810190611137565b610476565b60405161015d919061153d565b60405180910390f35b34801561017257600080fd5b5061017b6104bb565b6040516101889190611617565b60405180910390f35b34801561019d57600080fd5b506101a66104ea565b6040516101b39190611617565b60405180910390f35b6101d660048036036101d19190810190611137565b6104f3565b005b6101f260048036036101ed9190810190611085565b610639565b6040516101ff9190611617565b60405180910390f35b610222600480360361021d919081019061119c565b610b39565b005b34801561023057600080fd5b50610239610ca2565b6040516102469190611617565b60405180910390f35b34801561025b57600080fd5b50610264610cab565b6040516102719190611558565b60405180910390f35b34801561028657600080fd5b5061028f610d39565b60405161029c919061157a565b60405180910390f35b6102bf60048036036102ba9190810190611160565b610ead565b6040516102cc919061159c565b60405180910390f35b3480156102e157600080fd5b506102ea610f63565b6040516102f79190611617565b60405180910390f35b34801561030c57600080fd5b5061032760048036036103229190810190611137565b610f70565b604051610334919061153d565b60405180910390f35b60006003600083815260200190815260200160002090508060070160009054906101000a900460ff166103e4578060020160009054906101000a900473ffffffffffffffffffffffffffffffffffffffff1673ffffffffffffffffffffffffffffffffffffffff163373ffffffffffffffffffffffffffffffffffffffff16146103c657600080fd5b60018160070160016101000a81548160ff0219169083151502179055505b5050565b6060600580548060200260200160405190810160405280929190818152602001828054801561046c57602002820191906000526020600020905b8160009054906101000a900473ffffffffffffffffffffffffffffffffffffffff1673ffffffffffffffffffffffffffffffffffffffff1681526020019060010190808311610422575b5050505050905090565b6000806003600084815260200190815260200160002090508060020160009054906101000a900473ffffffffffffffffffffffffffffffffffffffff16915050919050565b6000806000905060008090505b6004805490508110156104e25780806001019150506104c8565b508091505090565b60008054905090565b60006003600083815260200190815260200160002090508060010160009054906101000a900473ffffffffffffffffffffffffffffffffffffffff1673ffffffffffffffffffffffffffffffffffffffff163373ffffffffffffffffffffffffffffffffffffffff161461059c576040517f08c379a0000000000000000000000000000000000000000000000000000000008152600401610593906115b7565b60405180910390fd5b60008160010160009054906101000a900473ffffffffffffffffffffffffffffffffffffffff1690506000826000015483600401540290508173ffffffffffffffffffffffffffffffffffffffff166108fc828560000154019081150290604051600060405180830381858888f19350505050158015610620573d6000803e3d6000fd5b5060008081548092919060019003919050555050505050565b6000610643610fb5565b6040518061012001604052808981526020018b73ffffffffffffffffffffffffffffffffffffffff1681526020018a73ffffffffffffffffffffffffffffffffffffffff1681526020016000548152602001888152602001878152602001868152602001600015158152602001600015158152509050600481908060018154018082558091505090600182039060005260206000209060080201600090919290919091506000820151816000015560208201518160010160006101000a81548173ffffffffffffffffffffffffffffffffffffffff021916908373ffffffffffffffffffffffffffffffffffffffff16021790555060408201518160020160006101000a81548173ffffffffffffffffffffffffffffffffffffffff021916908373ffffffffffffffffffffffffffffffffffffffff160217905550606082015181600301556080820151816004015560a0820151816005015560c0820151816006015560e08201518160070160006101000a81548160ff0219169083151502179055506101008201518160070160016101000a81548160ff0219169083151502179055505050508060036000805481526020019081526020016000206000820151816000015560208201518160010160006101000a81548173ffffffffffffffffffffffffffffffffffffffff021916908373ffffffffffffffffffffffffffffffffffffffff16021790555060408201518160020160006101000a81548173ffffffffffffffffffffffffffffffffffffffff021916908373ffffffffffffffffffffffffffffffffffffffff160217905550606082015181600301556080820151816004015560a0820151816005015560c0820151816006015560e08201518160070160006101000a81548160ff0219169083151502179055506101008201518160070160016101000a81548160ff02191690831515021790555090505060058a90806001815401808255809150509060018203906000526020600020016000909192909190916101000a81548173ffffffffffffffffffffffffffffffffffffffff021916908373ffffffffffffffffffffffffffffffffffffffff1602179055505060068990806001815401808255809150509060018203906000526020600020016000909192909190916101000a81548173ffffffffffffffffffffffffffffffffffffffff021916908373ffffffffffffffffffffffffffffffffffffffff1602179055505089600160008673ffffffffffffffffffffffffffffffffffffffff1673ffffffffffffffffffffffffffffffffffffffff16815260200190815260200160002060006101000a81548173ffffffffffffffffffffffffffffffffffffffff021916908373ffffffffffffffffffffffffffffffffffffffff16021790555088600260008573ffffffffffffffffffffffffffffffffffffffff1673ffffffffffffffffffffffffffffffffffffffff16815260200190815260200160002060006101000a81548173ffffffffffffffffffffffffffffffffffffffff021916908373ffffffffffffffffffffffffffffffffffffffff1602179055508873ffffffffffffffffffffffffffffffffffffffff166108fc349081150290604051600060405180830381858888f19350505050158015610b12573d6000803e3d6000fd5b50600080815480929190600101919050555060048054905091505098975050505050505050565b60006003600084815260200190815260200160002090508060010160009054906101000a900473ffffffffffffffffffffffffffffffffffffffff1673ffffffffffffffffffffffffffffffffffffffff163373ffffffffffffffffffffffffffffffffffffffff1614610be2576040517f08c379a0000000000000000000000000000000000000000000000000000000008152600401610bd9906115f7565b60405180910390fd5b8060070160009054906101000a900460ff16610c9d578060070160019054906101000a900460ff1615610c9c5760018160070160006101000a81548160ff0219169083151502179055508060020160009054906101000a900473ffffffffffffffffffffffffffffffffffffffff1673ffffffffffffffffffffffffffffffffffffffff166108fc82600001549081150290604051600060405180830381858888f19350505050158015610c9a573d6000803e3d6000fd5b505b5b505050565b60008054905090565b60606006805480602002602001604051908101604052809291908181526020018280548015610d2f57602002820191906000526020600020905b8160009054906101000a900473ffffffffffffffffffffffffffffffffffffffff1673ffffffffffffffffffffffffffffffffffffffff1681526020019060010190808311610ce5575b5050505050905090565b60606004805480602002602001604051908101604052809291908181526020016000905b82821015610ea4578382906000526020600020906008020160405180610120016040529081600082015481526020016001820160009054906101000a900473ffffffffffffffffffffffffffffffffffffffff1673ffffffffffffffffffffffffffffffffffffffff1673ffffffffffffffffffffffffffffffffffffffff1681526020016002820160009054906101000a900473ffffffffffffffffffffffffffffffffffffffff1673ffffffffffffffffffffffffffffffffffffffff1673ffffffffffffffffffffffffffffffffffffffff168152602001600382015481526020016004820154815260200160058201548152602001600682015481526020016007820160009054906101000a900460ff161515151581526020016007820160019054906101000a900460ff16151515158152505081526020019060010190610d5d565b50505050905090565b6000803414158015610ebf5750600034115b610efe576040517f08c379a0000000000000000000000000000000000000000000000000000000008152600401610ef5906115d7565b60405180910390fd5b60006003600085815260200190815260200160002090508273ffffffffffffffffffffffffffffffffffffffff166108fc349081150290604051600060405180830381858888f19350505050158015610f5b573d6000803e3d6000fd5b505092915050565b6000600480549050905090565b6000806003600084815260200190815260200160002090508060010160009054906101000a900473ffffffffffffffffffffffffffffffffffffffff16915050919050565b60405180610120016040528060008152602001600073ffffffffffffffffffffffffffffffffffffffff168152602001600073ffffffffffffffffffffffffffffffffffffffff168152602001600081526020016000815260200160008152602001600081526020016000151581526020016000151581525090565b60008135905061104081611709565b92915050565b60008135905061105581611720565b92915050565b60008135905061106a81611737565b92915050565b60008135905061107f8161174e565b92915050565b600080600080600080600080610100898b0312156110a257600080fd5b60006110b08b828c01611046565b98505060206110c18b828c01611046565b97505060406110d28b828c01611070565b96505060606110e38b828c01611070565b95505060806110f48b828c01611070565b94505060a06111058b828c01611070565b93505060c06111168b828c01611031565b92505060e06111278b828c01611031565b9150509295985092959890939650565b60006020828403121561114957600080fd5b600061115784828501611070565b91505092915050565b6000806040838503121561117357600080fd5b600061118185828601611070565b925050602061119285828601611046565b9150509250929050565b600080604083850312156111af57600080fd5b60006111bd85828601611070565b92505060206111ce8582860161105b565b9150509250929050565b60006111e48383611218565b60208301905092915050565b60006111fc8383611468565b6101208301905092915050565b611212816116c1565b82525050565b611221816116af565b82525050565b611230816116af565b82525050565b60006112418261164c565b61124b818561167c565b935061125683611632565b8060005b8381101561128757815161126e88826111d8565b975061127983611662565b92505060018101905061125a565b5085935050505092915050565b600061129f82611657565b6112a9818561168d565b93506112b48361163f565b8060005b838110156112e55781516112cc88826111f0565b97506112d78361166f565b9250506001810190506112b8565b5085935050505092915050565b6112fb816116d3565b82525050565b61130a816116d3565b82525050565b600061131d604e8361169e565b91507f4f6e6c7920746865206c6f616e65722063616e2063616c6c207468697320667560008301527f6e6374696f6e2e20446562746f72206d757374207265717565747320616e206560208301527f6e6420746f20746865206c6f616e0000000000000000000000000000000000006040830152606082019050919050565b60006113a960308361169e565b91507f416d6f756e74206d757374206265206e6f6e206e6567617469766520616e642060008301527f67726561746572207468616e206f6e65000000000000000000000000000000006020830152604082019050919050565b600061140f60268361169e565b91507f4f6e6c7920746865204c6f616e6572204d61792063616c6c207468697320667560008301527f6e6374696f6e00000000000000000000000000000000000000000000000000006020830152604082019050919050565b6101208201600082015161147f600085018261151f565b5060208201516114926020850182611209565b5060408201516114a56040850182611209565b5060608201516114b8606085018261151f565b5060808201516114cb608085018261151f565b5060a08201516114de60a085018261151f565b5060c08201516114f160c085018261151f565b5060e082015161150460e08501826112f2565b506101008201516115196101008501826112f2565b50505050565b611528816116ff565b82525050565b611537816116ff565b82525050565b60006020820190506115526000830184611227565b92915050565b600060208201905081810360008301526115728184611236565b905092915050565b600060208201905081810360008301526115948184611294565b905092915050565b60006020820190506115b16000830184611301565b92915050565b600060208201905081810360008301526115d081611310565b9050919050565b600060208201905081810360008301526115f08161139c565b9050919050565b6000602082019050818103600083015261161081611402565b9050919050565b600060208201905061162c600083018461152e565b92915050565b6000602082019050919050565b6000602082019050919050565b600081519050919050565b600081519050919050565b6000602082019050919050565b6000602082019050919050565b600082825260208201905092915050565b600082825260208201905092915050565b600082825260208201905092915050565b60006116ba826116df565b9050919050565b60006116cc826116df565b9050919050565b60008115159050919050565b600073ffffffffffffffffffffffffffffffffffffffff82169050919050565b6000819050919050565b611712816116af565b811461171d57600080fd5b50565b611729816116c1565b811461173457600080fd5b50565b611740816116d3565b811461174b57600080fd5b50565b611757816116ff565b811461176257600080fd5b5056fea265627a7a72305820a4cdc16011dd188f0943a4df4cd980bd2430281144f928fc8f92d7bf4e80e7be6c6578706572696d656e74616cf50037",
  "source": "pragma solidity ^0.5.0;\r\npragma experimental ABIEncoderV2;\r\n\r\ncontract lendMoney{\r\n    \r\nstruct Loan {\r\n    uint256 amount;\r\n    address payable loaner;\r\n    address payable debtor; \r\n    uint index;\r\n    uint interest;\r\n    uint dueDate;\r\n    uint condition; \r\n    bool loanFinished;\r\n    bool requestEnd;\r\n}\r\n    uint CurLoanCount = 0;\r\n    mapping(address => address) loaners;\r\n    mapping(address => address) debtors;\r\n    \r\n    mapping(uint => Loan) allloans;\r\n    \r\n    Loan[] everyLoan;\r\n    address[] allLoaners;\r\n    address[] allDebtors;\r\n    \r\n    function getLoanCount() public view returns (uint){\r\n            return CurLoanCount;\r\n    }\r\n    //add params\r\n    function startLoan(address payable _loaner, address payable _debtor, uint _amount, uint _interest, uint _duedate, uint _condition, address loanerprivkey, address debtorprivkey) public payable returns (uint256){\r\n        Loan memory newloan =  Loan({\r\n           amount: _amount,\r\n           loaner: _loaner,\r\n           debtor: _debtor,\r\n           index: CurLoanCount,\r\n           interest: _interest,\r\n           dueDate: _duedate, \r\n           condition: _condition,\r\n           loanFinished: false,\r\n           requestEnd: false\r\n        });\r\n    \r\n        everyLoan.push(newloan);\r\n        allloans[CurLoanCount] = newloan;\r\n        allLoaners.push(_loaner);\r\n        allDebtors.push(_debtor);\r\n        loaners[loanerprivkey] = _loaner;\r\n        debtors[debtorprivkey] = _debtor;\r\n        \r\n        _debtor.transfer(msg.value);\r\n        \r\n        CurLoanCount++;\r\n        \r\n        return everyLoan.length;\r\n    }\r\n    \r\n    \r\n    function endLoan(uint index) public payable{\r\n        Loan storage  tmploan = allloans[index];\r\n        require(msg.sender == tmploan.loaner, \"Only the loaner can call this function. Debtor must requets an end to the loan\");\r\n        \r\n        // //lay loaner from debtor\r\n        address payable loaner = tmploan.loaner;\r\n        uint interest = tmploan.interest * tmploan.amount;\r\n        //This function has some issues, throwing non descript errors, \r\n        //possible that we may need to make the debtor call this function to get the funds to the loaner.\r\n        //The frontend would populate the 'amount' parameter forcing the debtor to pay the loan at the required amount.\r\n        //The loaner would never call this function, they would call a frontend method that forces the debtor to pay the required amount back to the contract. \r\n        \r\n        //how to use webjs to check wallet balances https://ethereum.stackexchange.com/questions/39746/cant-get-address-balance-using-web3js <-- needed for forcing debtor\r\n        \r\n        loaner.transfer(tmploan.amount + interest);\r\n        CurLoanCount--;\r\n    }\r\n    \r\n    \r\n    \r\n    \r\n    function requestEnd(uint index) public payable{\r\n        Loan storage  tmploan = allloans[index];\r\n        if(!tmploan.loanFinished){\r\n        require(msg.sender == tmploan.debtor);\r\n        tmploan.requestEnd = true;        \r\n        }\r\n    }\r\n    \r\n    function confirmEnd(uint index, bool option) public payable{ \r\n        Loan storage  tmploan = allloans[index];\r\n        require(msg.sender == tmploan.loaner, \"Only the Loaner May call this function\");\r\n        if(!tmploan.loanFinished){\r\n        if(tmploan.requestEnd){\r\n                tmploan.loanFinished = true;\r\n                tmploan.debtor.transfer(tmploan.amount);\r\n            }   \r\n        }\r\n        \r\n    }\r\n    \r\n    \r\n    function payLoan(uint index, address payable loaner) public payable returns(bool){\r\n        //require that sender has the money \r\n        require(msg.value != 0 && msg.value > 0, \"Amount must be non negative and greater than one\");\r\n        Loan storage  tmploan = allloans[index];\r\n         loaner.transfer(msg.value);\r\n         \r\n        // if(!tmploan.loanFinished){\r\n            \r\n        //     uint amount = msg.value;\r\n        //     uint change = 0;\r\n        //     if(amount > tmploan.amount){\r\n        //         tmploan.amount = 0;\r\n        //         change = amount - tmploan.amount;\r\n        //     }\r\n        //     if(change!=0){\r\n        //         //if the debtor \r\n        //     //    tmploan.loaner.transfer(change);\r\n        //     }\r\n\r\n        //     // tmploan.loaner.transfer(msg.value);\r\n            \r\n        //     if(amount == 0){\r\n        //         tmploan.loanFinished = true;\r\n        //         return true;\r\n        //     }\r\n        //     return false;\r\n        // }\r\n      \r\n    }\r\n    \r\n    \r\n    function getDebtor(uint  debtorID) public returns (address) {\r\n        Loan storage  tmploan = allloans[debtorID];\r\n        return tmploan.debtor;\r\n    }\r\n    \r\n    function getLoaner(uint  loanerID) public returns(address) {\r\n        Loan storage  tmploan = allloans[loanerID];\r\n        return tmploan.loaner;\r\n    }\r\n    \r\n    \r\n    function getAllLoaners() public view returns (address[] memory){\r\n        return allLoaners;\r\n    }\r\n    \r\n    function getAllDebtors() public view returns (address[] memory){\r\n        return allDebtors;\r\n    }\r\n    \r\n    function func() public view returns(uint count){\r\n        return everyLoan.length;\r\n    }\r\n    function getAllLoans() public view returns(Loan[] memory){\r\n        return everyLoan;\r\n    }\r\n    \r\n    function getNumLoans() public view returns(uint){\r\n        return CurLoanCount;\r\n    }\r\n    // function checkLoan(uint index) public returns( uint amount,\r\n    // address payable loaner,\r\n    // address payable debtor, \r\n    // uint _index,\r\n    // uint interest,\r\n    // uint dueDate,\r\n    // uint condition,\r\n    // bool loanFinished,\r\n    // bool requestEnd){\r\n        \r\n    function checkLoan() public returns(uint256){\r\n    //Loan memory tmploan = allloans[index];\r\n    uint curtime = 0;\r\n    \r\n    for(uint i = 0;i<everyLoan.length;i++){\r\n    }\r\n    \r\n    \r\n    return curtime;\r\n    // return(tmploan.amount,tmploan.loaner, tmploan.debtor, tmploan.index, tmploan.interest, tmploan.dueDate, tmploan.condition, tmploan.loanFinished, tmploan.requestEnd); \r\n    }\r\n    \r\n    \r\n    function stringToBytes32(string memory source) private pure returns (bytes32 result) {\r\n        bytes memory tempEmptyStringTest = bytes(source);\r\n        if (tempEmptyStringTest.length == 0) {\r\n            return 0x0;\r\n        }\r\n    \r\n        assembly {\r\n            result := mload(add(source, 32))\r\n        }\r\n    }\r\n\r\n}\r\n    \r\n    //check below comment on how a date is a uint (below is needed for frontend interaction with the contract)\r\n    //https://ethereum.stackexchange.com/questions/32173/how-to-handle-dates-in-solidity-and-web3\r\n    \r\n",
  "sourcePath": "I:/Blockchain/lendmoney/contract/contracts/lendMoney.sol",
  "compiler": {
    "name": "solc",
    "version": "0.5.8+commit.23d335f2.Emscripten.clang"
  },
  "schemaVersion": "3.0.11",
  "updatedAt": "2019-08-11T22:18:38.411Z",
  "devdoc": {
    "methods": {}
  },
  "userdoc": {
    "methods": {}
  }
}