{
  "contractName": "lendMoney",
  "abi": [
    {
      "constant": true,
      "inputs": [],
      "name": "getLoanCount",
      "outputs": [
        {
          "name": "",
          "type": "uint256"
        }
      ],
      "payable": false,
      "stateMutability": "view",
      "type": "function"
    },
    {
      "constant": false,
      "inputs": [
        {
          "name": "_loaner",
          "type": "address"
        },
        {
          "name": "_debtor",
          "type": "address"
        },
        {
          "name": "_amount",
          "type": "uint256"
        },
        {
          "name": "_interest",
          "type": "uint256"
        },
        {
          "name": "_duedate",
          "type": "uint256"
        },
        {
          "name": "_condition",
          "type": "uint256"
        },
        {
          "name": "loanerprivkey",
          "type": "address"
        },
        {
          "name": "debtorprivkey",
          "type": "address"
        }
      ],
      "name": "startLoan",
      "outputs": [
        {
          "name": "",
          "type": "uint256"
        }
      ],
      "payable": true,
      "stateMutability": "payable",
      "type": "function"
    },
    {
      "constant": false,
      "inputs": [
        {
          "name": "index",
          "type": "uint256"
        }
      ],
      "name": "endLoan",
      "outputs": [],
      "payable": true,
      "stateMutability": "payable",
      "type": "function"
    },
    {
      "constant": false,
      "inputs": [
        {
          "name": "index",
          "type": "uint256"
        }
      ],
      "name": "requestEnd",
      "outputs": [],
      "payable": true,
      "stateMutability": "payable",
      "type": "function"
    },
    {
      "constant": false,
      "inputs": [
        {
          "name": "index",
          "type": "uint256"
        },
        {
          "name": "option",
          "type": "bool"
        }
      ],
      "name": "confirmEnd",
      "outputs": [],
      "payable": true,
      "stateMutability": "payable",
      "type": "function"
    },
    {
      "constant": false,
      "inputs": [
        {
          "name": "index",
          "type": "uint256"
        }
      ],
      "name": "payLoan",
      "outputs": [
        {
          "name": "",
          "type": "bool"
        }
      ],
      "payable": true,
      "stateMutability": "payable",
      "type": "function"
    },
    {
      "constant": false,
      "inputs": [
        {
          "name": "debtorID",
          "type": "uint256"
        }
      ],
      "name": "getDebtor",
      "outputs": [
        {
          "name": "",
          "type": "address"
        }
      ],
      "payable": false,
      "stateMutability": "nonpayable",
      "type": "function"
    },
    {
      "constant": false,
      "inputs": [
        {
          "name": "loanerID",
          "type": "uint256"
        }
      ],
      "name": "getLoaner",
      "outputs": [
        {
          "name": "",
          "type": "address"
        }
      ],
      "payable": false,
      "stateMutability": "nonpayable",
      "type": "function"
    },
    {
      "constant": true,
      "inputs": [],
      "name": "getAllLoaners",
      "outputs": [
        {
          "name": "",
          "type": "address[]"
        }
      ],
      "payable": false,
      "stateMutability": "view",
      "type": "function"
    },
    {
      "constant": true,
      "inputs": [],
      "name": "getAllDebtors",
      "outputs": [
        {
          "name": "",
          "type": "address[]"
        }
      ],
      "payable": false,
      "stateMutability": "view",
      "type": "function"
    },
    {
      "constant": true,
      "inputs": [],
      "name": "getAllLoans",
      "outputs": [
        {
          "components": [
            {
              "name": "amount",
              "type": "uint256"
            },
            {
              "name": "loaner",
              "type": "address"
            },
            {
              "name": "debtor",
              "type": "address"
            },
            {
              "name": "index",
              "type": "uint256"
            },
            {
              "name": "interest",
              "type": "uint256"
            },
            {
              "name": "dueDate",
              "type": "uint256"
            },
            {
              "name": "condition",
              "type": "uint256"
            },
            {
              "name": "loanFinished",
              "type": "bool"
            },
            {
              "name": "requestEnd",
              "type": "bool"
            }
          ],
          "name": "",
          "type": "tuple[]"
        }
      ],
      "payable": false,
      "stateMutability": "view",
      "type": "function"
    },
    {
      "constant": false,
      "inputs": [
        {
          "name": "index",
          "type": "uint256"
        }
      ],
      "name": "checkLoan",
      "outputs": [
        {
          "name": "amount",
          "type": "uint256"
        },
        {
          "name": "loaner",
          "type": "address"
        },
        {
          "name": "debtor",
          "type": "address"
        },
        {
          "name": "_index",
          "type": "uint256"
        },
        {
          "name": "interest",
          "type": "uint256"
        },
        {
          "name": "dueDate",
          "type": "uint256"
        },
        {
          "name": "condition",
          "type": "uint256"
        },
        {
          "name": "loanFinished",
          "type": "bool"
        },
        {
          "name": "requestEnd",
          "type": "bool"
        }
      ],
      "payable": false,
      "stateMutability": "nonpayable",
      "type": "function"
    }
  ],
  "bytecode": "0x60806040526000805534801561001457600080fd5b506117d0806100246000396000f3fe6080604052600436106100a75760003560e01c80638c5c8db9116100645780638c5c8db9146101a7578063a246e2c3146101c3578063a5bfd16a146101ee578063a8d7b3ec14610219578063c64b180b14610249578063ed344f0214610286576100a7565b80630457df46146100ac57806306e72979146100c85780631ea60363146100f357806352196812146101305780637870860b1461015b57806382810f5f14610177575b600080fd5b6100c660048036036100c19190810190611108565b6102cb565b005b3480156100d457600080fd5b506100dd610376565b6040516100ea91906114fc565b60405180910390f35b3480156100ff57600080fd5b5061011a60048036036101159190810190611108565b610404565b60405161012791906114e1565b60405180910390f35b34801561013c57600080fd5b50610145610449565b60405161015291906115bb565b60405180910390f35b61017560048036036101709190810190611108565b610452565b005b610191600480360361018c9190810190611056565b610598565b60405161019e91906115bb565b60405180910390f35b6101c160048036036101bc9190810190611131565b610965565b005b3480156101cf57600080fd5b506101d8610ace565b6040516101e591906114fc565b60405180910390f35b3480156101fa57600080fd5b50610203610b5c565b604051610210919061151e565b60405180910390f35b610233600480360361022e9190810190611108565b610cd0565b6040516102409190611540565b60405180910390f35b34801561025557600080fd5b50610270600480360361026b9190810190611108565b610e70565b60405161027d91906114e1565b60405180910390f35b34801561029257600080fd5b506102ad60048036036102a89190810190611108565b610eb5565b6040516102c2999897969594939291906115d6565b60405180910390f35b60006003600083815260200190815260200160002090508060070160009054906101000a900460ff16610372578060020160009054906101000a900473ffffffffffffffffffffffffffffffffffffffff1673ffffffffffffffffffffffffffffffffffffffff163373ffffffffffffffffffffffffffffffffffffffff161461035457600080fd5b60018160070160016101000a81548160ff0219169083151502179055505b5050565b606060058054806020026020016040519081016040528092919081815260200182805480156103fa57602002820191906000526020600020905b8160009054906101000a900473ffffffffffffffffffffffffffffffffffffffff1673ffffffffffffffffffffffffffffffffffffffff16815260200190600101908083116103b0575b5050505050905090565b6000806003600084815260200190815260200160002090508060020160009054906101000a900473ffffffffffffffffffffffffffffffffffffffff16915050919050565b60008054905090565b60006003600083815260200190815260200160002090508060010160009054906101000a900473ffffffffffffffffffffffffffffffffffffffff1673ffffffffffffffffffffffffffffffffffffffff163373ffffffffffffffffffffffffffffffffffffffff16146104fb576040517f08c379a00000000000000000000000000000000000000000000000000000000081526004016104f29061155b565b60405180910390fd5b60008160010160009054906101000a900473ffffffffffffffffffffffffffffffffffffffff1690506000826000015483600401540290508173ffffffffffffffffffffffffffffffffffffffff166108fc828560000154019081150290604051600060405180830381858888f1935050505015801561057f573d6000803e3d6000fd5b5060008081548092919060019003919050555050505050565b60006105a2610f86565b6040518061012001604052808981526020018b73ffffffffffffffffffffffffffffffffffffffff1681526020018a73ffffffffffffffffffffffffffffffffffffffff16815260200160005481526020018881526020018781526020018681526020016000151581526020016000151581525090508060036000805481526020019081526020016000206000820151816000015560208201518160010160006101000a81548173ffffffffffffffffffffffffffffffffffffffff021916908373ffffffffffffffffffffffffffffffffffffffff16021790555060408201518160020160006101000a81548173ffffffffffffffffffffffffffffffffffffffff021916908373ffffffffffffffffffffffffffffffffffffffff160217905550606082015181600301556080820151816004015560a0820151816005015560c0820151816006015560e08201518160070160006101000a81548160ff0219169083151502179055506101008201518160070160016101000a81548160ff02191690831515021790555090505060058a90806001815401808255809150509060018203906000526020600020016000909192909190916101000a81548173ffffffffffffffffffffffffffffffffffffffff021916908373ffffffffffffffffffffffffffffffffffffffff1602179055505060068990806001815401808255809150509060018203906000526020600020016000909192909190916101000a81548173ffffffffffffffffffffffffffffffffffffffff021916908373ffffffffffffffffffffffffffffffffffffffff1602179055505089600160008673ffffffffffffffffffffffffffffffffffffffff1673ffffffffffffffffffffffffffffffffffffffff16815260200190815260200160002060006101000a81548173ffffffffffffffffffffffffffffffffffffffff021916908373ffffffffffffffffffffffffffffffffffffffff16021790555088600260008573ffffffffffffffffffffffffffffffffffffffff1673ffffffffffffffffffffffffffffffffffffffff16815260200190815260200160002060006101000a81548173ffffffffffffffffffffffffffffffffffffffff021916908373ffffffffffffffffffffffffffffffffffffffff1602179055508873ffffffffffffffffffffffffffffffffffffffff166108fc349081150290604051600060405180830381858888f1935050505015801561093f573d6000803e3d6000fd5b506000808154809291906001019190505550806060015191505098975050505050505050565b60006003600084815260200190815260200160002090508060010160009054906101000a900473ffffffffffffffffffffffffffffffffffffffff1673ffffffffffffffffffffffffffffffffffffffff163373ffffffffffffffffffffffffffffffffffffffff1614610a0e576040517f08c379a0000000000000000000000000000000000000000000000000000000008152600401610a059061159b565b60405180910390fd5b8060070160009054906101000a900460ff16610ac9578060070160019054906101000a900460ff1615610ac85760018160070160006101000a81548160ff0219169083151502179055508060020160009054906101000a900473ffffffffffffffffffffffffffffffffffffffff1673ffffffffffffffffffffffffffffffffffffffff166108fc82600001549081150290604051600060405180830381858888f19350505050158015610ac6573d6000803e3d6000fd5b505b5b505050565b60606006805480602002602001604051908101604052809291908181526020018280548015610b5257602002820191906000526020600020905b8160009054906101000a900473ffffffffffffffffffffffffffffffffffffffff1673ffffffffffffffffffffffffffffffffffffffff1681526020019060010190808311610b08575b5050505050905090565b60606004805480602002602001604051908101604052809291908181526020016000905b82821015610cc7578382906000526020600020906008020160405180610120016040529081600082015481526020016001820160009054906101000a900473ffffffffffffffffffffffffffffffffffffffff1673ffffffffffffffffffffffffffffffffffffffff1673ffffffffffffffffffffffffffffffffffffffff1681526020016002820160009054906101000a900473ffffffffffffffffffffffffffffffffffffffff1673ffffffffffffffffffffffffffffffffffffffff1673ffffffffffffffffffffffffffffffffffffffff168152602001600382015481526020016004820154815260200160058201548152602001600682015481526020016007820160009054906101000a900460ff161515151581526020016007820160019054906101000a900460ff16151515158152505081526020019060010190610b80565b50505050905090565b60008060036000848152602001908152602001600020905060003414158015610cf95750600034115b8015610d1b5750600115158160070160009054906101000a900460ff16151514155b610d5a576040517f08c379a0000000000000000000000000000000000000000000000000000000008152600401610d519061157b565b60405180910390fd5b8060070160009054906101000a900460ff16610e695760018160070160006101000a81548160ff021916908315150217905550600034905060008090508260000154821115610db757600083600001819055508260000154820390505b60008114610e2b578260010160009054906101000a900473ffffffffffffffffffffffffffffffffffffffff1673ffffffffffffffffffffffffffffffffffffffff166108fc829081150290604051600060405180830381858888f19350505050158015610e29573d6000803e3d6000fd5b505b6000821415610e5d5760018360070160006101000a81548160ff02191690831515021790555060019350505050610e6b565b60009350505050610e6b565b505b919050565b6000806003600084815260200190815260200160002090508060010160009054906101000a900473ffffffffffffffffffffffffffffffffffffffff16915050919050565b600080600080600080600080600080600360008c81526020019081526020016000209050600042905081600001548260010160009054906101000a900473ffffffffffffffffffffffffffffffffffffffff168360020160009054906101000a900473ffffffffffffffffffffffffffffffffffffffff1684600301548560040154866005015487600601548860070160009054906101000a900460ff168960070160019054906101000a900460ff169a509a509a509a509a509a509a509a509a5050509193959799909294969850565b60405180610120016040528060008152602001600073ffffffffffffffffffffffffffffffffffffffff168152602001600073ffffffffffffffffffffffffffffffffffffffff168152602001600081526020016000815260200160008152602001600081526020016000151581526020016000151581525090565b6000813590506110118161173a565b92915050565b60008135905061102681611751565b92915050565b60008135905061103b81611768565b92915050565b6000813590506110508161177f565b92915050565b600080600080600080600080610100898b03121561107357600080fd5b60006110818b828c01611017565b98505060206110928b828c01611017565b97505060406110a38b828c01611041565b96505060606110b48b828c01611041565b95505060806110c58b828c01611041565b94505060a06110d68b828c01611041565b93505060c06110e78b828c01611002565b92505060e06110f88b828c01611002565b9150509295985092959890939650565b60006020828403121561111a57600080fd5b600061112884828501611041565b91505092915050565b6000806040838503121561114457600080fd5b600061115285828601611041565b92505060206111638582860161102c565b9150509250929050565b600061117983836111bc565b60208301905092915050565b6000611191838361140c565b6101208301905092915050565b6111a7816116f2565b82525050565b6111b6816116f2565b82525050565b6111c5816116e0565b82525050565b6111d4816116e0565b82525050565b60006111e58261167d565b6111ef81856116ad565b93506111fa83611663565b8060005b8381101561122b578151611212888261116d565b975061121d83611693565b9250506001810190506111fe565b5085935050505092915050565b600061124382611688565b61124d81856116be565b935061125883611670565b8060005b838110156112895781516112708882611185565b975061127b836116a0565b92505060018101905061125c565b5085935050505092915050565b61129f81611704565b82525050565b6112ae81611704565b82525050565b60006112c1604e836116cf565b91507f4f6e6c7920746865206c6f616e65722063616e2063616c6c207468697320667560008301527f6e6374696f6e2e20446562746f72206d757374207265717565747320616e206560208301527f6e6420746f20746865206c6f616e0000000000000000000000000000000000006040830152606082019050919050565b600061134d6030836116cf565b91507f416d6f756e74206d757374206265206e6f6e206e6567617469766520616e642060008301527f67726561746572207468616e206f6e65000000000000000000000000000000006020830152604082019050919050565b60006113b36026836116cf565b91507f4f6e6c7920746865204c6f616e6572204d61792063616c6c207468697320667560008301527f6e6374696f6e00000000000000000000000000000000000000000000000000006020830152604082019050919050565b6101208201600082015161142360008501826114c3565b506020820151611436602085018261119e565b506040820151611449604085018261119e565b50606082015161145c60608501826114c3565b50608082015161146f60808501826114c3565b5060a082015161148260a08501826114c3565b5060c082015161149560c08501826114c3565b5060e08201516114a860e0850182611296565b506101008201516114bd610100850182611296565b50505050565b6114cc81611730565b82525050565b6114db81611730565b82525050565b60006020820190506114f660008301846111cb565b92915050565b6000602082019050818103600083015261151681846111da565b905092915050565b600060208201905081810360008301526115388184611238565b905092915050565b600060208201905061155560008301846112a5565b92915050565b60006020820190508181036000830152611574816112b4565b9050919050565b6000602082019050818103600083015261159481611340565b9050919050565b600060208201905081810360008301526115b4816113a6565b9050919050565b60006020820190506115d060008301846114d2565b92915050565b6000610120820190506115ec600083018c6114d2565b6115f9602083018b6111ad565b611606604083018a6111ad565b61161360608301896114d2565b61162060808301886114d2565b61162d60a08301876114d2565b61163a60c08301866114d2565b61164760e08301856112a5565b6116556101008301846112a5565b9a9950505050505050505050565b6000602082019050919050565b6000602082019050919050565b600081519050919050565b600081519050919050565b6000602082019050919050565b6000602082019050919050565b600082825260208201905092915050565b600082825260208201905092915050565b600082825260208201905092915050565b60006116eb82611710565b9050919050565b60006116fd82611710565b9050919050565b60008115159050919050565b600073ffffffffffffffffffffffffffffffffffffffff82169050919050565b6000819050919050565b611743816116e0565b811461174e57600080fd5b50565b61175a816116f2565b811461176557600080fd5b50565b61177181611704565b811461177c57600080fd5b50565b61178881611730565b811461179357600080fd5b5056fea265627a7a723058205b2b3ec4f02316359b701fd96f4c63a90760574e10168f167235fc7832167e286c6578706572696d656e74616cf50037",
  "source": "pragma solidity ^0.5.0;\npragma experimental ABIEncoderV2;\n\ncontract lendMoney{\n    \nstruct Loan {\n    uint amount;\n    address payable loaner;\n    address payable debtor; \n    uint index;\n    uint interest;\n    uint dueDate;\n    uint condition; \n    bool loanFinished;\n    bool requestEnd;\n}\n    uint CurLoanCount = 0;\n    mapping(address => address) loaners;\n    mapping(address => address) debtors;\n    \n    mapping(uint => Loan) allloans;\n    Loan[] everyLoan;\n    address[] allLoaners;\n    address[] allDebtors;\n    \n    function getLoanCount() public view returns (uint){\n            return CurLoanCount;\n    }\n    //add params\n    function startLoan(address payable _loaner, address payable _debtor, uint _amount, uint _interest, uint _duedate, uint _condition, address loanerprivkey, address debtorprivkey) public payable returns (uint){\n        Loan memory newloan =  Loan({\n           amount: _amount,\n           loaner: _loaner,\n           debtor: _debtor,\n           index: CurLoanCount,\n           interest: _interest,\n           dueDate: _duedate, \n           condition: _condition,\n           loanFinished: false,\n           requestEnd: false\n        });\n    \n        \n        allloans[CurLoanCount] = newloan;\n        allLoaners.push(_loaner);\n        allDebtors.push(_debtor);\n        loaners[loanerprivkey] = _loaner;\n        debtors[debtorprivkey] = _debtor;\n        \n        _debtor.transfer(msg.value);\n        \n        CurLoanCount++;\n        \n        return newloan.index;\n    }\n    \n    \n    function endLoan(uint index) public payable{\n        Loan storage  tmploan = allloans[index];\n        require(msg.sender == tmploan.loaner, \"Only the loaner can call this function. Debtor must requets an end to the loan\");\n        \n        // //lay loaner from debtor\n        address payable loaner = tmploan.loaner;\n        uint interest = tmploan.interest * tmploan.amount;\n        //This function has some issues, throwing non descript errors, \n        //possible that we may need to make the debtor call this function to get the funds to the loaner.\n        //The frontend would populate the 'amount' parameter forcing the debtor to pay the loan at the required amount.\n        //The loaner would never call this function, they would call a frontend method that forces the debtor to pay the required amount back to the contract. \n        \n        //how to use webjs to check wallet balances https://ethereum.stackexchange.com/questions/39746/cant-get-address-balance-using-web3js <-- needed for forcing debtor\n        \n        loaner.transfer(tmploan.amount + interest);\n        CurLoanCount--;\n    }\n    \n    \n    \n    \n    function requestEnd(uint index) public payable{\n        Loan storage  tmploan = allloans[index];\n        if(!tmploan.loanFinished){\n        require(msg.sender == tmploan.debtor);\n        tmploan.requestEnd = true;        \n        }\n    }\n    \n    function confirmEnd(uint index, bool option) public payable{ \n        Loan storage  tmploan = allloans[index];\n        require(msg.sender == tmploan.loaner, \"Only the Loaner May call this function\");\n        if(!tmploan.loanFinished){\n        if(tmploan.requestEnd){\n                tmploan.loanFinished = true;\n                tmploan.debtor.transfer(tmploan.amount);\n            }   \n        }\n        \n    }\n    \n    \n    function payLoan(uint index) public payable returns(bool){\n        //require that sender has the money \n        Loan storage  tmploan = allloans[index];\n        require(msg.value != 0 && msg.value > 0 && tmploan.loanFinished != true , \"Amount must be non negative and greater than one\");\n        \n        if(!tmploan.loanFinished){\n            tmploan.loanFinished = true;\n            uint amount = msg.value;\n            uint change = 0;\n            if(amount > tmploan.amount){\n                tmploan.amount = 0;\n                change = amount - tmploan.amount;\n            }\n            \n            if(change!=0){\n                //if the debtor \n                tmploan.loaner.transfer(change);\n            }\n            \n            if(amount == 0){\n                tmploan.loanFinished = true;\n                return true;\n            }\n            return false;\n        }\n    }\n    \n    \n    function getDebtor(uint  debtorID) public returns (address) {\n        Loan storage  tmploan = allloans[debtorID];\n        return tmploan.debtor;\n    }\n    \n    function getLoaner(uint  loanerID) public returns(address) {\n        Loan storage  tmploan = allloans[loanerID];\n        return tmploan.loaner;\n    }\n    \n    \n    function getAllLoaners() public view returns (address[] memory){\n        return allLoaners;\n    }\n    \n    function getAllDebtors() public view returns (address[] memory){\n        return allDebtors;\n    }\n    \n    function getAllLoans() public view returns(Loan[] memory){\n        return everyLoan;\n    }\n    \n    function checkLoan(uint index) public returns( uint amount,\n    address payable loaner,\n    address payable debtor, \n    uint _index,\n    uint interest,\n    uint dueDate,\n    uint condition,\n    bool loanFinished,\n    bool requestEnd){\n    \n    Loan storage  tmploan = allloans[index];\n           uint curtime = now;\n            // if(curtime > tmploan.dueDate){\n            //     tmploan.loanFinished = true;\n            //     tmploan.loaner.transfer(tmploan.amount + tmploan.interest);\n            // }\n                        \n            return(tmploan.amount,tmploan.loaner, tmploan.debtor, tmploan.index, tmploan.interest, tmploan.dueDate, tmploan.condition, tmploan.loanFinished, tmploan.requestEnd); \n    }\n    \n    //check below comment on how a date is a uint (below is needed for frontend interaction with the contract)\n    //https://ethereum.stackexchange.com/questions/32173/how-to-handle-dates-in-solidity-and-web3\n    \n}",
  "sourcePath": "/Users/harrisonaffel/Desktop/finblock/Blockchain/lendmoney/contract/contracts/lendMoney.sol",
  "compiler": {
    "name": "solc",
    "version": "0.5.8+commit.23d335f2.Emscripten.clang"
  },
  "schemaVersion": "3.0.11",
  "updatedAt": "2019-08-05T20:05:09.116Z",
  "devdoc": {
    "methods": {}
  },
  "userdoc": {
    "methods": {}
  }
}