{
  "contractName": "lendMoney",
  "abi": [
    {
      "constant": true,
      "inputs": [],
      "name": "getLoanCount",
      "outputs": [
        {
          "name": "",
          "type": "uint256"
        }
      ],
      "payable": false,
      "stateMutability": "view",
      "type": "function"
    },
    {
      "constant": false,
      "inputs": [
        {
          "name": "_loaner",
          "type": "address"
        },
        {
          "name": "_debtor",
          "type": "address"
        },
        {
          "name": "_amount",
          "type": "uint256"
        },
        {
          "name": "_interest",
          "type": "uint256"
        },
        {
          "name": "_duedate",
          "type": "uint256"
        },
        {
          "name": "_condition",
          "type": "uint256"
        },
        {
          "name": "loanerprivkey",
          "type": "address"
        },
        {
          "name": "debtorprivkey",
          "type": "address"
        }
      ],
      "name": "startLoan",
      "outputs": [
        {
          "name": "",
          "type": "uint256"
        }
      ],
      "payable": true,
      "stateMutability": "payable",
      "type": "function"
    },
    {
      "constant": false,
      "inputs": [
        {
          "name": "index",
          "type": "uint256"
        }
      ],
      "name": "endLoan",
      "outputs": [],
      "payable": true,
      "stateMutability": "payable",
      "type": "function"
    },
    {
      "constant": false,
      "inputs": [
        {
          "name": "index",
          "type": "uint256"
        }
      ],
      "name": "requestEnd",
      "outputs": [],
      "payable": true,
      "stateMutability": "payable",
      "type": "function"
    },
    {
      "constant": false,
      "inputs": [
        {
          "name": "index",
          "type": "uint256"
        },
        {
          "name": "option",
          "type": "bool"
        }
      ],
      "name": "confirmEnd",
      "outputs": [],
      "payable": true,
      "stateMutability": "payable",
      "type": "function"
    },
    {
      "constant": false,
      "inputs": [
        {
          "name": "index",
          "type": "uint256"
        },
        {
          "name": "loaner",
          "type": "address"
        }
      ],
      "name": "payLoan",
      "outputs": [
        {
          "name": "",
          "type": "bool"
        }
      ],
      "payable": true,
      "stateMutability": "payable",
      "type": "function"
    },
    {
      "constant": false,
      "inputs": [
        {
          "name": "debtorID",
          "type": "uint256"
        }
      ],
      "name": "getDebtor",
      "outputs": [
        {
          "name": "",
          "type": "address"
        }
      ],
      "payable": false,
      "stateMutability": "nonpayable",
      "type": "function"
    },
    {
      "constant": false,
      "inputs": [
        {
          "name": "loanerID",
          "type": "uint256"
        }
      ],
      "name": "getLoaner",
      "outputs": [
        {
          "name": "",
          "type": "address"
        }
      ],
      "payable": false,
      "stateMutability": "nonpayable",
      "type": "function"
    },
    {
      "constant": true,
      "inputs": [],
      "name": "getAllLoaners",
      "outputs": [
        {
          "name": "",
          "type": "address[]"
        }
      ],
      "payable": false,
      "stateMutability": "view",
      "type": "function"
    },
    {
      "constant": true,
      "inputs": [],
      "name": "getAllDebtors",
      "outputs": [
        {
          "name": "",
          "type": "address[]"
        }
      ],
      "payable": false,
      "stateMutability": "view",
      "type": "function"
    },
    {
      "constant": true,
      "inputs": [],
      "name": "func",
      "outputs": [
        {
          "name": "count",
          "type": "uint256"
        }
      ],
      "payable": false,
      "stateMutability": "view",
      "type": "function"
    },
    {
      "constant": true,
      "inputs": [],
      "name": "getAllLoans",
      "outputs": [
        {
          "components": [
            {
              "name": "amount",
              "type": "uint256"
            },
            {
              "name": "loaner",
              "type": "address"
            },
            {
              "name": "debtor",
              "type": "address"
            },
            {
              "name": "index",
              "type": "uint256"
            },
            {
              "name": "interest",
              "type": "uint256"
            },
            {
              "name": "dueDate",
              "type": "uint256"
            },
            {
              "name": "condition",
              "type": "uint256"
            },
            {
              "name": "loanFinished",
              "type": "bool"
            },
            {
              "name": "requestEnd",
              "type": "bool"
            }
          ],
          "name": "",
          "type": "tuple[]"
        }
      ],
      "payable": false,
      "stateMutability": "view",
      "type": "function"
    },
    {
      "constant": true,
      "inputs": [],
      "name": "getNumLoans",
      "outputs": [
        {
          "name": "",
          "type": "uint256"
        }
      ],
      "payable": false,
      "stateMutability": "view",
      "type": "function"
    },
    {
      "constant": false,
      "inputs": [],
      "name": "checkLoan",
      "outputs": [
        {
          "name": "",
          "type": "uint256"
        }
      ],
      "payable": false,
      "stateMutability": "nonpayable",
      "type": "function"
    }
  ],
  "bytecode": "0x60806040526000805534801561001457600080fd5b5061189c806100246000396000f3fe6080604052600436106100dd5760003560e01c80638c5c8db91161007f578063a5bfd16a11610059578063a5bfd16a1461027a578063af03c793146102a5578063bfa814b5146102d5578063c64b180b14610300576100dd565b80638c5c8db9146102085780638e589bfe14610224578063a246e2c31461024f576100dd565b8063496fb803116100bb578063496fb8031461016657806352196812146101915780637870860b146101bc57806382810f5f146101d8576100dd565b80630457df46146100e257806306e72979146100fe5780631ea6036314610129575b600080fd5b6100fc60048036036100f791908101906111d4565b61033d565b005b34801561010a57600080fd5b506101136103e8565b6040516101209190611635565b60405180910390f35b34801561013557600080fd5b50610150600480360361014b91908101906111d4565b610476565b60405161015d919061161a565b60405180910390f35b34801561017257600080fd5b5061017b6104bb565b6040516101889190611714565b60405180910390f35b34801561019d57600080fd5b506101a66104ea565b6040516101b39190611714565b60405180910390f35b6101d660048036036101d191908101906111d4565b6104f3565b005b6101f260048036036101ed9190810190611122565b610639565b6040516101ff9190611714565b60405180910390f35b610222600480360361021d9190810190611239565b610b39565b005b34801561023057600080fd5b50610239610ca2565b6040516102469190611714565b60405180910390f35b34801561025b57600080fd5b50610264610cab565b6040516102719190611635565b60405180910390f35b34801561028657600080fd5b5061028f610d39565b60405161029c9190611657565b60405180910390f35b6102bf60048036036102ba91908101906111fd565b610ead565b6040516102cc9190611679565b60405180910390f35b3480156102e157600080fd5b506102ea611000565b6040516102f79190611714565b60405180910390f35b34801561030c57600080fd5b50610327600480360361032291908101906111d4565b61100d565b604051610334919061161a565b60405180910390f35b60006003600083815260200190815260200160002090508060070160009054906101000a900460ff166103e4578060020160009054906101000a900473ffffffffffffffffffffffffffffffffffffffff1673ffffffffffffffffffffffffffffffffffffffff163373ffffffffffffffffffffffffffffffffffffffff16146103c657600080fd5b60018160070160016101000a81548160ff0219169083151502179055505b5050565b6060600580548060200260200160405190810160405280929190818152602001828054801561046c57602002820191906000526020600020905b8160009054906101000a900473ffffffffffffffffffffffffffffffffffffffff1673ffffffffffffffffffffffffffffffffffffffff1681526020019060010190808311610422575b5050505050905090565b6000806003600084815260200190815260200160002090508060020160009054906101000a900473ffffffffffffffffffffffffffffffffffffffff16915050919050565b6000806000905060008090505b6004805490508110156104e25780806001019150506104c8565b508091505090565b60008054905090565b60006003600083815260200190815260200160002090508060010160009054906101000a900473ffffffffffffffffffffffffffffffffffffffff1673ffffffffffffffffffffffffffffffffffffffff163373ffffffffffffffffffffffffffffffffffffffff161461059c576040517f08c379a000000000000000000000000000000000000000000000000000000000815260040161059390611694565b60405180910390fd5b60008160010160009054906101000a900473ffffffffffffffffffffffffffffffffffffffff1690506000826000015483600401540290508173ffffffffffffffffffffffffffffffffffffffff166108fc828560000154019081150290604051600060405180830381858888f19350505050158015610620573d6000803e3d6000fd5b5060008081548092919060019003919050555050505050565b6000610643611052565b6040518061012001604052808981526020018b73ffffffffffffffffffffffffffffffffffffffff1681526020018a73ffffffffffffffffffffffffffffffffffffffff1681526020016000548152602001888152602001878152602001868152602001600015158152602001600015158152509050600481908060018154018082558091505090600182039060005260206000209060080201600090919290919091506000820151816000015560208201518160010160006101000a81548173ffffffffffffffffffffffffffffffffffffffff021916908373ffffffffffffffffffffffffffffffffffffffff16021790555060408201518160020160006101000a81548173ffffffffffffffffffffffffffffffffffffffff021916908373ffffffffffffffffffffffffffffffffffffffff160217905550606082015181600301556080820151816004015560a0820151816005015560c0820151816006015560e08201518160070160006101000a81548160ff0219169083151502179055506101008201518160070160016101000a81548160ff0219169083151502179055505050508060036000805481526020019081526020016000206000820151816000015560208201518160010160006101000a81548173ffffffffffffffffffffffffffffffffffffffff021916908373ffffffffffffffffffffffffffffffffffffffff16021790555060408201518160020160006101000a81548173ffffffffffffffffffffffffffffffffffffffff021916908373ffffffffffffffffffffffffffffffffffffffff160217905550606082015181600301556080820151816004015560a0820151816005015560c0820151816006015560e08201518160070160006101000a81548160ff0219169083151502179055506101008201518160070160016101000a81548160ff02191690831515021790555090505060058a90806001815401808255809150509060018203906000526020600020016000909192909190916101000a81548173ffffffffffffffffffffffffffffffffffffffff021916908373ffffffffffffffffffffffffffffffffffffffff1602179055505060068990806001815401808255809150509060018203906000526020600020016000909192909190916101000a81548173ffffffffffffffffffffffffffffffffffffffff021916908373ffffffffffffffffffffffffffffffffffffffff1602179055505089600160008673ffffffffffffffffffffffffffffffffffffffff1673ffffffffffffffffffffffffffffffffffffffff16815260200190815260200160002060006101000a81548173ffffffffffffffffffffffffffffffffffffffff021916908373ffffffffffffffffffffffffffffffffffffffff16021790555088600260008573ffffffffffffffffffffffffffffffffffffffff1673ffffffffffffffffffffffffffffffffffffffff16815260200190815260200160002060006101000a81548173ffffffffffffffffffffffffffffffffffffffff021916908373ffffffffffffffffffffffffffffffffffffffff1602179055508873ffffffffffffffffffffffffffffffffffffffff166108fc349081150290604051600060405180830381858888f19350505050158015610b12573d6000803e3d6000fd5b50600080815480929190600101919050555060048054905091505098975050505050505050565b60006003600084815260200190815260200160002090508060010160009054906101000a900473ffffffffffffffffffffffffffffffffffffffff1673ffffffffffffffffffffffffffffffffffffffff163373ffffffffffffffffffffffffffffffffffffffff1614610be2576040517f08c379a0000000000000000000000000000000000000000000000000000000008152600401610bd9906116f4565b60405180910390fd5b8060070160009054906101000a900460ff16610c9d578060070160019054906101000a900460ff1615610c9c5760018160070160006101000a81548160ff0219169083151502179055508060020160009054906101000a900473ffffffffffffffffffffffffffffffffffffffff1673ffffffffffffffffffffffffffffffffffffffff166108fc82600001549081150290604051600060405180830381858888f19350505050158015610c9a573d6000803e3d6000fd5b505b5b505050565b60008054905090565b60606006805480602002602001604051908101604052809291908181526020018280548015610d2f57602002820191906000526020600020905b8160009054906101000a900473ffffffffffffffffffffffffffffffffffffffff1673ffffffffffffffffffffffffffffffffffffffff1681526020019060010190808311610ce5575b5050505050905090565b60606004805480602002602001604051908101604052809291908181526020016000905b82821015610ea4578382906000526020600020906008020160405180610120016040529081600082015481526020016001820160009054906101000a900473ffffffffffffffffffffffffffffffffffffffff1673ffffffffffffffffffffffffffffffffffffffff1673ffffffffffffffffffffffffffffffffffffffff1681526020016002820160009054906101000a900473ffffffffffffffffffffffffffffffffffffffff1673ffffffffffffffffffffffffffffffffffffffff1673ffffffffffffffffffffffffffffffffffffffff168152602001600382015481526020016004820154815260200160058201548152602001600682015481526020016007820160009054906101000a900460ff161515151581526020016007820160019054906101000a900460ff16151515158152505081526020019060010190610d5d565b50505050905090565b6000803414158015610ebf5750600034115b610efe576040517f08c379a0000000000000000000000000000000000000000000000000000000008152600401610ef5906116d4565b60405180910390fd5b6000600360008581526020019081526020016000209050600060048581548110610f2457fe5b906000526020600020906008020190508060070160009054906101000a900460ff1615610f86576040517f08c379a0000000000000000000000000000000000000000000000000000000008152600401610f7d906116b4565b60405180910390fd5b60018160070160006101000a81548160ff021916908315150217905550600281600601819055508373ffffffffffffffffffffffffffffffffffffffff166108fc349081150290604051600060405180830381858888f19350505050158015610ff3573d6000803e3d6000fd5b5060019250505092915050565b6000600480549050905090565b6000806003600084815260200190815260200160002090508060010160009054906101000a900473ffffffffffffffffffffffffffffffffffffffff16915050919050565b60405180610120016040528060008152602001600073ffffffffffffffffffffffffffffffffffffffff168152602001600073ffffffffffffffffffffffffffffffffffffffff168152602001600081526020016000815260200160008152602001600081526020016000151581526020016000151581525090565b6000813590506110dd81611806565b92915050565b6000813590506110f28161181d565b92915050565b60008135905061110781611834565b92915050565b60008135905061111c8161184b565b92915050565b600080600080600080600080610100898b03121561113f57600080fd5b600061114d8b828c016110e3565b985050602061115e8b828c016110e3565b975050604061116f8b828c0161110d565b96505060606111808b828c0161110d565b95505060806111918b828c0161110d565b94505060a06111a28b828c0161110d565b93505060c06111b38b828c016110ce565b92505060e06111c48b828c016110ce565b9150509295985092959890939650565b6000602082840312156111e657600080fd5b60006111f48482850161110d565b91505092915050565b6000806040838503121561121057600080fd5b600061121e8582860161110d565b925050602061122f858286016110e3565b9150509250929050565b6000806040838503121561124c57600080fd5b600061125a8582860161110d565b925050602061126b858286016110f8565b9150509250929050565b600061128183836112b5565b60208301905092915050565b60006112998383611545565b6101208301905092915050565b6112af816117be565b82525050565b6112be816117ac565b82525050565b6112cd816117ac565b82525050565b60006112de82611749565b6112e88185611779565b93506112f38361172f565b8060005b8381101561132457815161130b8882611275565b97506113168361175f565b9250506001810190506112f7565b5085935050505092915050565b600061133c82611754565b611346818561178a565b93506113518361173c565b8060005b83811015611382578151611369888261128d565b97506113748361176c565b925050600181019050611355565b5085935050505092915050565b611398816117d0565b82525050565b6113a7816117d0565b82525050565b60006113ba604e8361179b565b91507f4f6e6c7920746865206c6f616e65722063616e2063616c6c207468697320667560008301527f6e6374696f6e2e20446562746f72206d757374207265717565747320616e206560208301527f6e6420746f20746865206c6f616e0000000000000000000000000000000000006040830152606082019050919050565b6000611446601f8361179b565b91507f796f75206861766520706169642074686973206c6f616e20616c7265616479006000830152602082019050919050565b600061148660308361179b565b91507f416d6f756e74206d757374206265206e6f6e206e6567617469766520616e642060008301527f67726561746572207468616e206f6e65000000000000000000000000000000006020830152604082019050919050565b60006114ec60268361179b565b91507f4f6e6c7920746865204c6f616e6572204d61792063616c6c207468697320667560008301527f6e6374696f6e00000000000000000000000000000000000000000000000000006020830152604082019050919050565b6101208201600082015161155c60008501826115fc565b50602082015161156f60208501826112a6565b50604082015161158260408501826112a6565b50606082015161159560608501826115fc565b5060808201516115a860808501826115fc565b5060a08201516115bb60a08501826115fc565b5060c08201516115ce60c08501826115fc565b5060e08201516115e160e085018261138f565b506101008201516115f661010085018261138f565b50505050565b611605816117fc565b82525050565b611614816117fc565b82525050565b600060208201905061162f60008301846112c4565b92915050565b6000602082019050818103600083015261164f81846112d3565b905092915050565b600060208201905081810360008301526116718184611331565b905092915050565b600060208201905061168e600083018461139e565b92915050565b600060208201905081810360008301526116ad816113ad565b9050919050565b600060208201905081810360008301526116cd81611439565b9050919050565b600060208201905081810360008301526116ed81611479565b9050919050565b6000602082019050818103600083015261170d816114df565b9050919050565b6000602082019050611729600083018461160b565b92915050565b6000602082019050919050565b6000602082019050919050565b600081519050919050565b600081519050919050565b6000602082019050919050565b6000602082019050919050565b600082825260208201905092915050565b600082825260208201905092915050565b600082825260208201905092915050565b60006117b7826117dc565b9050919050565b60006117c9826117dc565b9050919050565b60008115159050919050565b600073ffffffffffffffffffffffffffffffffffffffff82169050919050565b6000819050919050565b61180f816117ac565b811461181a57600080fd5b50565b611826816117be565b811461183157600080fd5b50565b61183d816117d0565b811461184857600080fd5b50565b611854816117fc565b811461185f57600080fd5b5056fea265627a7a723058200fa5516cc732d24274491c538806e4463426518e32fea1120a88e5bb6b09c4996c6578706572696d656e74616cf50037",
  "source": "pragma solidity ^0.5.0;\npragma experimental ABIEncoderV2;\n\ncontract lendMoney{\n    \nstruct Loan {\n    uint256 amount;\n    address payable loaner;\n    address payable debtor; \n    uint index;\n    uint interest;\n    uint dueDate;\n    uint condition; \n    bool loanFinished;\n    bool requestEnd;\n}\n    uint CurLoanCount = 0;\n    mapping(address => address) loaners;\n    mapping(address => address) debtors;\n    \n    mapping(uint => Loan) allloans;\n    \n    Loan[] everyLoan;\n    address[] allLoaners;\n    address[] allDebtors;\n    \n    function getLoanCount() public view returns (uint){\n            return CurLoanCount;\n    }\n    //add params\n    function startLoan(address payable _loaner, address payable _debtor, uint _amount, uint _interest, uint _duedate, uint _condition, address loanerprivkey, address debtorprivkey) public payable returns (uint256){\n        Loan memory newloan =  Loan({\n           amount: _amount,\n           loaner: _loaner,\n           debtor: _debtor,\n           index: CurLoanCount,\n           interest: _interest,\n           dueDate: _duedate, \n           condition: _condition,\n           loanFinished: false,\n           requestEnd: false\n        });\n    \n        everyLoan.push(newloan);\n        allloans[CurLoanCount] = newloan;\n        allLoaners.push(_loaner);\n        allDebtors.push(_debtor);\n        loaners[loanerprivkey] = _loaner;\n        debtors[debtorprivkey] = _debtor;\n        \n        _debtor.transfer(msg.value);\n        \n        CurLoanCount++;\n        \n        return everyLoan.length;\n    }\n    \n    \n    function endLoan(uint index) public payable{\n        Loan storage  tmploan = allloans[index];\n        require(msg.sender == tmploan.loaner, \"Only the loaner can call this function. Debtor must requets an end to the loan\");\n        \n        // //lay loaner from debtor\n        address payable loaner = tmploan.loaner;\n        uint interest = tmploan.interest * tmploan.amount;\n        //This function has some issues, throwing non descript errors, \n        //possible that we may need to make the debtor call this function to get the funds to the loaner.\n        //The frontend would populate the 'amount' parameter forcing the debtor to pay the loan at the required amount.\n        //The loaner would never call this function, they would call a frontend method that forces the debtor to pay the required amount back to the contract. \n        \n        //how to use webjs to check wallet balances https://ethereum.stackexchange.com/questions/39746/cant-get-address-balance-using-web3js <-- needed for forcing debtor\n        \n        loaner.transfer(tmploan.amount + interest);\n        CurLoanCount--;\n    }\n    \n    \n    \n    \n    function requestEnd(uint index) public payable{\n        Loan storage  tmploan = allloans[index];\n        if(!tmploan.loanFinished){\n        require(msg.sender == tmploan.debtor);\n        tmploan.requestEnd = true;        \n        }\n    }\n    \n    function confirmEnd(uint index, bool option) public payable{ \n        Loan storage  tmploan = allloans[index];\n        require(msg.sender == tmploan.loaner, \"Only the Loaner May call this function\");\n        if(!tmploan.loanFinished){\n        if(tmploan.requestEnd){\n                tmploan.loanFinished = true;\n                tmploan.debtor.transfer(tmploan.amount);\n            }   \n        }\n        \n    }\n    \n    \n    function payLoan(uint index, address payable loaner) public payable returns(bool){\n        //require that sender has the money \n        require(msg.value != 0 && msg.value > 0, \"Amount must be non negative and greater than one\");\n        \n        Loan storage tmploan = allloans[index];\n        Loan storage t2 = everyLoan[index];\n        \n        require(!t2.loanFinished, \"you have paid this loan already\");\n        t2.loanFinished = true;        \n        t2.condition = 2;\n        \n    \n        loaner.transfer(msg.value);\n        return true;\n    }\n    \n    \n    function getDebtor(uint  debtorID) public returns (address) {\n        Loan storage  tmploan = allloans[debtorID];\n        return tmploan.debtor;\n    }\n    \n    function getLoaner(uint  loanerID) public returns(address) {\n        Loan storage  tmploan = allloans[loanerID];\n        return tmploan.loaner;\n    }\n    \n    \n    function getAllLoaners() public view returns (address[] memory){\n        return allLoaners;\n    }\n    \n    function getAllDebtors() public view returns (address[] memory){\n        return allDebtors;\n    }\n    \n    function func() public view returns(uint count){\n        return everyLoan.length;\n    }\n    function getAllLoans() public view returns(Loan[] memory){\n        return everyLoan;\n    }\n    \n    function getNumLoans() public view returns(uint){\n        return CurLoanCount;\n    }\n    // function checkLoan(uint index) public returns( uint amount,\n    // address payable loaner,\n    // address payable debtor, \n    // uint _index,\n    // uint interest,\n    // uint dueDate,\n    // uint condition,\n    // bool loanFinished,\n    // bool requestEnd){\n        \n    function checkLoan() public returns(uint256){\n    //Loan memory tmploan = allloans[index];\n    uint curtime = 0;\n    \n    for(uint i = 0;i<everyLoan.length;i++){\n    }\n    \n    \n    return curtime;\n    // return(tmploan.amount,tmploan.loaner, tmploan.debtor, tmploan.index, tmploan.interest, tmploan.dueDate, tmploan.condition, tmploan.loanFinished, tmploan.requestEnd); \n    }\n    \n    \n    function stringToBytes32(string memory source) private pure returns (bytes32 result) {\n        bytes memory tempEmptyStringTest = bytes(source);\n        if (tempEmptyStringTest.length == 0) {\n            return 0x0;\n        }\n    \n        assembly {\n            result := mload(add(source, 32))\n        }\n    }\n\n}\n    \n    //check below comment on how a date is a uint (below is needed for frontend interaction with the contract)\n    //https://ethereum.stackexchange.com/questions/32173/how-to-handle-dates-in-solidity-and-web3\n    \n",
  "sourcePath": "/Users/harrisonaffel/Desktop/finblock/Blockchain/lendmoney/contract/contracts/lendMoney.sol",
  "compiler": {
    "name": "solc",
    "version": "0.5.8+commit.23d335f2.Emscripten.clang"
  },
  "schemaVersion": "3.0.11",
  "updatedAt": "2019-08-10T21:54:25.484Z",
  "devdoc": {
    "methods": {}
  },
  "userdoc": {
    "methods": {}
  }
}