{
  "contractName": "lendMoney",
  "abi": [
    {
      "constant": false,
      "inputs": [
        {
          "name": "_loaner",
          "type": "address"
        },
        {
          "name": "_debtor",
          "type": "address"
        },
        {
          "name": "_amount",
          "type": "uint256"
        },
        {
          "name": "_interest",
          "type": "uint256"
        },
        {
          "name": "_duedate",
          "type": "uint256"
        },
        {
          "name": "_condition",
          "type": "bytes32"
        },
        {
          "name": "loanerprivkey",
          "type": "address"
        },
        {
          "name": "debtorprivkey",
          "type": "address"
        }
      ],
      "name": "startLoan",
      "outputs": [],
      "payable": true,
      "stateMutability": "payable",
      "type": "function"
    },
    {
      "constant": false,
      "inputs": [
        {
          "name": "index",
          "type": "uint256"
        }
      ],
      "name": "endLoan",
      "outputs": [],
      "payable": true,
      "stateMutability": "payable",
      "type": "function"
    },
    {
      "constant": false,
      "inputs": [
        {
          "name": "index",
          "type": "uint256"
        }
      ],
      "name": "requestEnd",
      "outputs": [],
      "payable": true,
      "stateMutability": "payable",
      "type": "function"
    },
    {
      "constant": false,
      "inputs": [
        {
          "name": "index",
          "type": "uint256"
        },
        {
          "name": "option",
          "type": "bool"
        }
      ],
      "name": "confirmEnd",
      "outputs": [],
      "payable": true,
      "stateMutability": "payable",
      "type": "function"
    },
    {
      "constant": false,
      "inputs": [
        {
          "name": "index",
          "type": "uint256"
        }
      ],
      "name": "payLoan",
      "outputs": [],
      "payable": true,
      "stateMutability": "payable",
      "type": "function"
    },
    {
      "constant": false,
      "inputs": [
        {
          "name": "debtorID",
          "type": "uint256"
        }
      ],
      "name": "getDebtor",
      "outputs": [],
      "payable": false,
      "stateMutability": "nonpayable",
      "type": "function"
    },
    {
      "constant": false,
      "inputs": [
        {
          "name": "loanerID",
          "type": "uint256"
        }
      ],
      "name": "getLoaner",
      "outputs": [],
      "payable": false,
      "stateMutability": "nonpayable",
      "type": "function"
    },
    {
      "constant": true,
      "inputs": [],
      "name": "getAllLoaners",
      "outputs": [],
      "payable": false,
      "stateMutability": "view",
      "type": "function"
    },
    {
      "constant": true,
      "inputs": [],
      "name": "getAllDebtors",
      "outputs": [],
      "payable": false,
      "stateMutability": "view",
      "type": "function"
    },
    {
      "constant": true,
      "inputs": [
        {
          "name": "index",
          "type": "uint256"
        }
      ],
      "name": "checkLoan",
      "outputs": [],
      "payable": false,
      "stateMutability": "view",
      "type": "function"
    }
  ],
  "bytecode": "0x608060405234801561001057600080fd5b50610746806100206000396000f3fe6080604052600436106100915760003560e01c8063a129374411610059578063a12937441461017e578063a246e2c31461024b578063a8d7b3ec14610262578063c64b180b14610290578063ed344f02146102cb57610091565b80630457df461461009657806306e72979146100c45780631ea60363146100db5780637870860b146101165780638c5c8db914610144575b600080fd5b6100c2600480360360208110156100ac57600080fd5b8101908080359060200190929190505050610306565b005b3480156100d057600080fd5b506100d9610309565b005b3480156100e757600080fd5b50610114600480360360208110156100fe57600080fd5b810190808035906020019092919050505061030b565b005b6101426004803603602081101561012c57600080fd5b810190808035906020019092919050505061030e565b005b61017c6004803603604081101561015a57600080fd5b8101908080359060200190929190803515159060200190929190505050610311565b005b610249600480360361010081101561019557600080fd5b81019080803573ffffffffffffffffffffffffffffffffffffffff169060200190929190803573ffffffffffffffffffffffffffffffffffffffff16906020019092919080359060200190929190803590602001909291908035906020019092919080359060200190929190803573ffffffffffffffffffffffffffffffffffffffff169060200190929190803573ffffffffffffffffffffffffffffffffffffffff169060200190929190505050610315565b005b34801561025757600080fd5b50610260610690565b005b61028e6004803603602081101561027857600080fd5b8101908080359060200190929190505050610692565b005b34801561029c57600080fd5b506102c9600480360360208110156102b357600080fd5b8101908080359060200190929190505050610695565b005b3480156102d757600080fd5b50610304600480360360208110156102ee57600080fd5b8101908080359060200190929190505050610698565b005b50565b565b50565b50565b5050565b600080815480929190600101919050555061032e61069b565b6040518061012001604052808881526020018a73ffffffffffffffffffffffffffffffffffffffff1681526020018973ffffffffffffffffffffffffffffffffffffffff16815260200160005481526020018781526020018681526020018581526020016000151581526020016000151581525090508060036000805481526020019081526020016000206000820151816000015560208201518160010160006101000a81548173ffffffffffffffffffffffffffffffffffffffff021916908373ffffffffffffffffffffffffffffffffffffffff16021790555060408201518160020160006101000a81548173ffffffffffffffffffffffffffffffffffffffff021916908373ffffffffffffffffffffffffffffffffffffffff160217905550606082015181600301556080820151816004015560a0820151816005015560c0820151816006015560e08201518160070160006101000a81548160ff0219169083151502179055506101008201518160070160016101000a81548160ff02191690831515021790555090505060048990806001815401808255809150509060018203906000526020600020016000909192909190916101000a81548173ffffffffffffffffffffffffffffffffffffffff021916908373ffffffffffffffffffffffffffffffffffffffff1602179055505060058890806001815401808255809150509060018203906000526020600020016000909192909190916101000a81548173ffffffffffffffffffffffffffffffffffffffff021916908373ffffffffffffffffffffffffffffffffffffffff1602179055505088600160008573ffffffffffffffffffffffffffffffffffffffff1673ffffffffffffffffffffffffffffffffffffffff16815260200190815260200160002060006101000a81548173ffffffffffffffffffffffffffffffffffffffff021916908373ffffffffffffffffffffffffffffffffffffffff16021790555087600260008473ffffffffffffffffffffffffffffffffffffffff1673ffffffffffffffffffffffffffffffffffffffff16815260200190815260200160002060006101000a81548173ffffffffffffffffffffffffffffffffffffffff021916908373ffffffffffffffffffffffffffffffffffffffff160217905550505050505050505050565b565b50565b50565b50565b60405180610120016040528060008152602001600073ffffffffffffffffffffffffffffffffffffffff168152602001600073ffffffffffffffffffffffffffffffffffffffff16815260200160008152602001600081526020016000815260200160008019168152602001600015158152602001600015158152509056fea165627a7a72305820c36f9586a05e481ba26566a14bf7563ee36b9ef2d8842876d61ae42e086eac3a0029",
  "source": "pragma solidity ^0.5.0;\n\ncontract lendMoney{\n    \nstruct Loan {\n    uint amount;\n    address loaner;\n    address debtor; \n    uint index;\n    uint interest;\n    uint dueDate;\n    bytes32 condition; \n    bool loanFinished;\n    bool requestEnd;\n}\n    uint CurLoanCount;\n    mapping(address => address) loaners;\n    mapping(address => address) debtors;\n\n    mapping(uint => Loan) allloans;\n    \n    address[] allLoaners;\n    address[] allDebtors;\n    \n    //add params\n    function startLoan(address _loaner, address _debtor, uint _amount, uint _interest, uint _duedate, bytes32 _condition, address loanerprivkey, address debtorprivkey) public payable{\n        CurLoanCount++;\n        Loan memory newloan =  Loan({\n           amount: _amount,\n           loaner: _loaner,\n           debtor: _debtor,\n           index: CurLoanCount,\n           interest: _interest,\n           dueDate: _duedate, \n           condition: _condition,\n           loanFinished: false,\n           requestEnd: false\n        });\n        //we need a way to have this function alert the debtor/loaner. or maybe just handle that all on the front end \n        allloans[CurLoanCount] = newloan;\n        allLoaners.push(_loaner);\n        allDebtors.push(_debtor);\n        loaners[loanerprivkey] = _loaner;\n        debtors[debtorprivkey] = _debtor;\n    }\n    \n    \n    function endLoan(uint index) public payable{\n        \n    }\n    \n    function requestEnd(uint index) public payable{\n        \n    }\n    \n    function confirmEnd(uint index, bool option) public payable{ \n        \n    }\n    function payLoan(uint index) public payable{\n        \n    }\n    \n    \n    function getDebtor(uint  debtorID) public {\n        \n    }\n    \n    function getLoaner(uint  loanerID) public {\n        \n    }\n    \n    \n    function getAllLoaners() public view {\n        \n    }\n    function getAllDebtors() public view {\n        \n    }\n    \n    \n    function checkLoan(uint index) public view{\n        \n    }\n    //check below comment on how a date is a uint (below is needed for frontend interaction with the contract)\n    //https://ethereum.stackexchange.com/questions/32173/how-to-handle-dates-in-solidity-and-web3\n    \n}",
  "sourcePath": "/Users/harrisonaffel/Desktop/blockFinal/lendmoney/contract/contracts/lendMoney.sol",
  "compiler": {
    "name": "solc",
    "version": "0.5.8+commit.23d335f2.Emscripten.clang"
  },
  "schemaVersion": "3.0.11",
  "updatedAt": "2019-07-28T20:50:07.897Z",
  "devdoc": {
    "methods": {}
  },
  "userdoc": {
    "methods": {}
  }
}