{
  "contractName": "lendMoney",
  "abi": [
    {
      "constant": true,
      "inputs": [],
      "name": "getLoanCount",
      "outputs": [
        {
          "name": "",
          "type": "uint256"
        }
      ],
      "payable": false,
      "stateMutability": "view",
      "type": "function"
    },
    {
      "constant": false,
      "inputs": [
        {
          "name": "_loaner",
          "type": "address"
        },
        {
          "name": "_debtor",
          "type": "address"
        },
        {
          "name": "_amount",
          "type": "uint256"
        },
        {
          "name": "_interest",
          "type": "uint256"
        },
        {
          "name": "_duedate",
          "type": "uint256"
        },
        {
          "name": "_condition",
          "type": "uint256"
        },
        {
          "name": "loanerprivkey",
          "type": "address"
        },
        {
          "name": "debtorprivkey",
          "type": "address"
        }
      ],
      "name": "startLoan",
      "outputs": [
        {
          "name": "",
          "type": "uint256"
        }
      ],
      "payable": true,
      "stateMutability": "payable",
      "type": "function"
    },
    {
      "constant": false,
      "inputs": [
        {
          "name": "index",
          "type": "uint256"
        }
      ],
      "name": "endLoan",
      "outputs": [],
      "payable": true,
      "stateMutability": "payable",
      "type": "function"
    },
    {
      "constant": false,
      "inputs": [
        {
          "name": "index",
          "type": "uint256"
        }
      ],
      "name": "requestEnd",
      "outputs": [],
      "payable": true,
      "stateMutability": "payable",
      "type": "function"
    },
    {
      "constant": false,
      "inputs": [
        {
          "name": "index",
          "type": "uint256"
        },
        {
          "name": "option",
          "type": "bool"
        }
      ],
      "name": "confirmEnd",
      "outputs": [],
      "payable": true,
      "stateMutability": "payable",
      "type": "function"
    },
    {
      "constant": false,
      "inputs": [
        {
          "name": "index",
          "type": "uint256"
        }
      ],
      "name": "payLoan",
      "outputs": [
        {
          "name": "",
          "type": "bool"
        }
      ],
      "payable": true,
      "stateMutability": "payable",
      "type": "function"
    },
    {
      "constant": false,
      "inputs": [
        {
          "name": "debtorID",
          "type": "uint256"
        }
      ],
      "name": "getDebtor",
      "outputs": [
        {
          "name": "",
          "type": "address"
        }
      ],
      "payable": false,
      "stateMutability": "nonpayable",
      "type": "function"
    },
    {
      "constant": false,
      "inputs": [
        {
          "name": "loanerID",
          "type": "uint256"
        }
      ],
      "name": "getLoaner",
      "outputs": [
        {
          "name": "",
          "type": "address"
        }
      ],
      "payable": false,
      "stateMutability": "nonpayable",
      "type": "function"
    },
    {
      "constant": true,
      "inputs": [],
      "name": "getAllLoaners",
      "outputs": [
        {
          "name": "",
          "type": "address[]"
        }
      ],
      "payable": false,
      "stateMutability": "view",
      "type": "function"
    },
    {
      "constant": true,
      "inputs": [],
      "name": "getAllDebtors",
      "outputs": [
        {
          "name": "",
          "type": "address[]"
        }
      ],
      "payable": false,
      "stateMutability": "view",
      "type": "function"
    },
    {
      "constant": true,
      "inputs": [],
      "name": "getAllLoans",
      "outputs": [
        {
          "components": [
            {
              "name": "amount",
              "type": "uint256"
            },
            {
              "name": "loaner",
              "type": "address"
            },
            {
              "name": "debtor",
              "type": "address"
            },
            {
              "name": "index",
              "type": "uint256"
            },
            {
              "name": "interest",
              "type": "uint256"
            },
            {
              "name": "dueDate",
              "type": "uint256"
            },
            {
              "name": "condition",
              "type": "uint256"
            },
            {
              "name": "loanFinished",
              "type": "bool"
            },
            {
              "name": "requestEnd",
              "type": "bool"
            }
          ],
          "name": "",
          "type": "tuple[]"
        }
      ],
      "payable": false,
      "stateMutability": "view",
      "type": "function"
    },
    {
      "constant": true,
      "inputs": [],
      "name": "getNumLoans",
      "outputs": [
        {
          "name": "",
          "type": "uint256"
        }
      ],
      "payable": false,
      "stateMutability": "view",
      "type": "function"
    },
    {
      "constant": false,
      "inputs": [
        {
          "name": "index",
          "type": "uint256"
        }
      ],
      "name": "checkLoan",
      "outputs": [
        {
          "name": "amount",
          "type": "uint256"
        },
        {
          "name": "loaner",
          "type": "address"
        },
        {
          "name": "debtor",
          "type": "address"
        },
        {
          "name": "_index",
          "type": "uint256"
        },
        {
          "name": "interest",
          "type": "uint256"
        },
        {
          "name": "dueDate",
          "type": "uint256"
        },
        {
          "name": "condition",
          "type": "uint256"
        },
        {
          "name": "loanFinished",
          "type": "bool"
        },
        {
          "name": "requestEnd",
          "type": "bool"
        }
      ],
      "payable": false,
      "stateMutability": "nonpayable",
      "type": "function"
    }
  ],
  "bytecode": "0x60806040526000805534801561001457600080fd5b506117e0806100246000396000f3fe6080604052600436106100c25760003560e01c80638c5c8db91161007f578063a5bfd16a11610059578063a5bfd16a14610234578063a8d7b3ec1461025f578063c64b180b1461028f578063ed344f02146102cc576100c2565b80638c5c8db9146101c25780638e589bfe146101de578063a246e2c314610209576100c2565b80630457df46146100c757806306e72979146100e35780631ea603631461010e578063521968121461014b5780637870860b1461017657806382810f5f14610192575b600080fd5b6100e160048036036100dc9190810190611118565b610311565b005b3480156100ef57600080fd5b506100f86103bc565b604051610105919061150c565b60405180910390f35b34801561011a57600080fd5b5061013560048036036101309190810190611118565b61044a565b60405161014291906114f1565b60405180910390f35b34801561015757600080fd5b5061016061048f565b60405161016d91906115cb565b60405180910390f35b610190600480360361018b9190810190611118565b610498565b005b6101ac60048036036101a79190810190611066565b6105de565b6040516101b991906115cb565b60405180910390f35b6101dc60048036036101d79190810190611141565b6109ab565b005b3480156101ea57600080fd5b506101f3610b14565b60405161020091906115cb565b60405180910390f35b34801561021557600080fd5b5061021e610b1d565b60405161022b919061150c565b60405180910390f35b34801561024057600080fd5b50610249610bab565b604051610256919061152e565b60405180910390f35b61027960048036036102749190810190611118565b610d1f565b6040516102869190611550565b60405180910390f35b34801561029b57600080fd5b506102b660048036036102b19190810190611118565b610e80565b6040516102c391906114f1565b60405180910390f35b3480156102d857600080fd5b506102f360048036036102ee9190810190611118565b610ec5565b604051610308999897969594939291906115e6565b60405180910390f35b60006003600083815260200190815260200160002090508060070160009054906101000a900460ff166103b8578060020160009054906101000a900473ffffffffffffffffffffffffffffffffffffffff1673ffffffffffffffffffffffffffffffffffffffff163373ffffffffffffffffffffffffffffffffffffffff161461039a57600080fd5b60018160070160016101000a81548160ff0219169083151502179055505b5050565b6060600580548060200260200160405190810160405280929190818152602001828054801561044057602002820191906000526020600020905b8160009054906101000a900473ffffffffffffffffffffffffffffffffffffffff1673ffffffffffffffffffffffffffffffffffffffff16815260200190600101908083116103f6575b5050505050905090565b6000806003600084815260200190815260200160002090508060020160009054906101000a900473ffffffffffffffffffffffffffffffffffffffff16915050919050565b60008054905090565b60006003600083815260200190815260200160002090508060010160009054906101000a900473ffffffffffffffffffffffffffffffffffffffff1673ffffffffffffffffffffffffffffffffffffffff163373ffffffffffffffffffffffffffffffffffffffff1614610541576040517f08c379a00000000000000000000000000000000000000000000000000000000081526004016105389061156b565b60405180910390fd5b60008160010160009054906101000a900473ffffffffffffffffffffffffffffffffffffffff1690506000826000015483600401540290508173ffffffffffffffffffffffffffffffffffffffff166108fc828560000154019081150290604051600060405180830381858888f193505050501580156105c5573d6000803e3d6000fd5b5060008081548092919060019003919050555050505050565b60006105e8610f96565b6040518061012001604052808981526020018b73ffffffffffffffffffffffffffffffffffffffff1681526020018a73ffffffffffffffffffffffffffffffffffffffff16815260200160005481526020018881526020018781526020018681526020016000151581526020016000151581525090508060036000805481526020019081526020016000206000820151816000015560208201518160010160006101000a81548173ffffffffffffffffffffffffffffffffffffffff021916908373ffffffffffffffffffffffffffffffffffffffff16021790555060408201518160020160006101000a81548173ffffffffffffffffffffffffffffffffffffffff021916908373ffffffffffffffffffffffffffffffffffffffff160217905550606082015181600301556080820151816004015560a0820151816005015560c0820151816006015560e08201518160070160006101000a81548160ff0219169083151502179055506101008201518160070160016101000a81548160ff02191690831515021790555090505060058a90806001815401808255809150509060018203906000526020600020016000909192909190916101000a81548173ffffffffffffffffffffffffffffffffffffffff021916908373ffffffffffffffffffffffffffffffffffffffff1602179055505060068990806001815401808255809150509060018203906000526020600020016000909192909190916101000a81548173ffffffffffffffffffffffffffffffffffffffff021916908373ffffffffffffffffffffffffffffffffffffffff1602179055505089600160008673ffffffffffffffffffffffffffffffffffffffff1673ffffffffffffffffffffffffffffffffffffffff16815260200190815260200160002060006101000a81548173ffffffffffffffffffffffffffffffffffffffff021916908373ffffffffffffffffffffffffffffffffffffffff16021790555088600260008573ffffffffffffffffffffffffffffffffffffffff1673ffffffffffffffffffffffffffffffffffffffff16815260200190815260200160002060006101000a81548173ffffffffffffffffffffffffffffffffffffffff021916908373ffffffffffffffffffffffffffffffffffffffff1602179055508873ffffffffffffffffffffffffffffffffffffffff166108fc349081150290604051600060405180830381858888f19350505050158015610985573d6000803e3d6000fd5b506000808154809291906001019190505550806060015191505098975050505050505050565b60006003600084815260200190815260200160002090508060010160009054906101000a900473ffffffffffffffffffffffffffffffffffffffff1673ffffffffffffffffffffffffffffffffffffffff163373ffffffffffffffffffffffffffffffffffffffff1614610a54576040517f08c379a0000000000000000000000000000000000000000000000000000000008152600401610a4b906115ab565b60405180910390fd5b8060070160009054906101000a900460ff16610b0f578060070160019054906101000a900460ff1615610b0e5760018160070160006101000a81548160ff0219169083151502179055508060020160009054906101000a900473ffffffffffffffffffffffffffffffffffffffff1673ffffffffffffffffffffffffffffffffffffffff166108fc82600001549081150290604051600060405180830381858888f19350505050158015610b0c573d6000803e3d6000fd5b505b5b505050565b60008054905090565b60606006805480602002602001604051908101604052809291908181526020018280548015610ba157602002820191906000526020600020905b8160009054906101000a900473ffffffffffffffffffffffffffffffffffffffff1673ffffffffffffffffffffffffffffffffffffffff1681526020019060010190808311610b57575b5050505050905090565b60606004805480602002602001604051908101604052809291908181526020016000905b82821015610d16578382906000526020600020906008020160405180610120016040529081600082015481526020016001820160009054906101000a900473ffffffffffffffffffffffffffffffffffffffff1673ffffffffffffffffffffffffffffffffffffffff1673ffffffffffffffffffffffffffffffffffffffff1681526020016002820160009054906101000a900473ffffffffffffffffffffffffffffffffffffffff1673ffffffffffffffffffffffffffffffffffffffff1673ffffffffffffffffffffffffffffffffffffffff168152602001600382015481526020016004820154815260200160058201548152602001600682015481526020016007820160009054906101000a900460ff161515151581526020016007820160019054906101000a900460ff16151515158152505081526020019060010190610bcf565b50505050905090565b6000803414158015610d315750600034115b610d70576040517f08c379a0000000000000000000000000000000000000000000000000000000008152600401610d679061158b565b60405180910390fd5b60006003600084815260200190815260200160002090508060070160009054906101000a900460ff16610e7957600034905060008090508260000154821115610dc757600083600001819055508260000154820390505b60008114610e3b578260010160009054906101000a900473ffffffffffffffffffffffffffffffffffffffff1673ffffffffffffffffffffffffffffffffffffffff166108fc829081150290604051600060405180830381858888f19350505050158015610e39573d6000803e3d6000fd5b505b6000821415610e6d5760018360070160006101000a81548160ff02191690831515021790555060019350505050610e7b565b60009350505050610e7b565b505b919050565b6000806003600084815260200190815260200160002090508060010160009054906101000a900473ffffffffffffffffffffffffffffffffffffffff16915050919050565b600080600080600080600080600080600360008c81526020019081526020016000209050600042905081600001548260010160009054906101000a900473ffffffffffffffffffffffffffffffffffffffff168360020160009054906101000a900473ffffffffffffffffffffffffffffffffffffffff1684600301548560040154866005015487600601548860070160009054906101000a900460ff168960070160019054906101000a900460ff169a509a509a509a509a509a509a509a509a5050509193959799909294969850565b60405180610120016040528060008152602001600073ffffffffffffffffffffffffffffffffffffffff168152602001600073ffffffffffffffffffffffffffffffffffffffff168152602001600081526020016000815260200160008152602001600081526020016000151581526020016000151581525090565b6000813590506110218161174a565b92915050565b60008135905061103681611761565b92915050565b60008135905061104b81611778565b92915050565b6000813590506110608161178f565b92915050565b600080600080600080600080610100898b03121561108357600080fd5b60006110918b828c01611027565b98505060206110a28b828c01611027565b97505060406110b38b828c01611051565b96505060606110c48b828c01611051565b95505060806110d58b828c01611051565b94505060a06110e68b828c01611051565b93505060c06110f78b828c01611012565b92505060e06111088b828c01611012565b9150509295985092959890939650565b60006020828403121561112a57600080fd5b600061113884828501611051565b91505092915050565b6000806040838503121561115457600080fd5b600061116285828601611051565b92505060206111738582860161103c565b9150509250929050565b600061118983836111cc565b60208301905092915050565b60006111a1838361141c565b6101208301905092915050565b6111b781611702565b82525050565b6111c681611702565b82525050565b6111d5816116f0565b82525050565b6111e4816116f0565b82525050565b60006111f58261168d565b6111ff81856116bd565b935061120a83611673565b8060005b8381101561123b578151611222888261117d565b975061122d836116a3565b92505060018101905061120e565b5085935050505092915050565b600061125382611698565b61125d81856116ce565b935061126883611680565b8060005b838110156112995781516112808882611195565b975061128b836116b0565b92505060018101905061126c565b5085935050505092915050565b6112af81611714565b82525050565b6112be81611714565b82525050565b60006112d1604e836116df565b91507f4f6e6c7920746865206c6f616e65722063616e2063616c6c207468697320667560008301527f6e6374696f6e2e20446562746f72206d757374207265717565747320616e206560208301527f6e6420746f20746865206c6f616e0000000000000000000000000000000000006040830152606082019050919050565b600061135d6030836116df565b91507f416d6f756e74206d757374206265206e6f6e206e6567617469766520616e642060008301527f67726561746572207468616e206f6e65000000000000000000000000000000006020830152604082019050919050565b60006113c36026836116df565b91507f4f6e6c7920746865204c6f616e6572204d61792063616c6c207468697320667560008301527f6e6374696f6e00000000000000000000000000000000000000000000000000006020830152604082019050919050565b6101208201600082015161143360008501826114d3565b50602082015161144660208501826111ae565b50604082015161145960408501826111ae565b50606082015161146c60608501826114d3565b50608082015161147f60808501826114d3565b5060a082015161149260a08501826114d3565b5060c08201516114a560c08501826114d3565b5060e08201516114b860e08501826112a6565b506101008201516114cd6101008501826112a6565b50505050565b6114dc81611740565b82525050565b6114eb81611740565b82525050565b600060208201905061150660008301846111db565b92915050565b6000602082019050818103600083015261152681846111ea565b905092915050565b600060208201905081810360008301526115488184611248565b905092915050565b600060208201905061156560008301846112b5565b92915050565b60006020820190508181036000830152611584816112c4565b9050919050565b600060208201905081810360008301526115a481611350565b9050919050565b600060208201905081810360008301526115c4816113b6565b9050919050565b60006020820190506115e060008301846114e2565b92915050565b6000610120820190506115fc600083018c6114e2565b611609602083018b6111bd565b611616604083018a6111bd565b61162360608301896114e2565b61163060808301886114e2565b61163d60a08301876114e2565b61164a60c08301866114e2565b61165760e08301856112b5565b6116656101008301846112b5565b9a9950505050505050505050565b6000602082019050919050565b6000602082019050919050565b600081519050919050565b600081519050919050565b6000602082019050919050565b6000602082019050919050565b600082825260208201905092915050565b600082825260208201905092915050565b600082825260208201905092915050565b60006116fb82611720565b9050919050565b600061170d82611720565b9050919050565b60008115159050919050565b600073ffffffffffffffffffffffffffffffffffffffff82169050919050565b6000819050919050565b611753816116f0565b811461175e57600080fd5b50565b61176a81611702565b811461177557600080fd5b50565b61178181611714565b811461178c57600080fd5b50565b61179881611740565b81146117a357600080fd5b5056fea265627a7a72305820f4398073e4069d7a1f2b5825a2ed77d0d7815c4dc0c225f488b8b62fc54476586c6578706572696d656e74616cf50037",
  "source": "pragma solidity ^0.5.0;\npragma experimental ABIEncoderV2;\n\ncontract lendMoney{\n    \nstruct Loan {\n    uint amount;\n    address payable loaner;\n    address payable debtor; \n    uint index;\n    uint interest;\n    uint dueDate;\n    uint condition; \n    bool loanFinished;\n    bool requestEnd;\n}\n    uint CurLoanCount = 0;\n    mapping(address => address) loaners;\n    mapping(address => address) debtors;\n    \n    mapping(uint => Loan) allloans;\n    Loan[] everyLoan;\n    address[] allLoaners;\n    address[] allDebtors;\n    \n    function getLoanCount() public view returns (uint){\n            return CurLoanCount;\n    }\n    //add params\n    function startLoan(address payable _loaner, address payable _debtor, uint _amount, uint _interest, uint _duedate, uint _condition, address loanerprivkey, address debtorprivkey) public payable returns (uint){\n        Loan memory newloan =  Loan({\n           amount: _amount,\n           loaner: _loaner,\n           debtor: _debtor,\n           index: CurLoanCount,\n           interest: _interest,\n           dueDate: _duedate, \n           condition: _condition,\n           loanFinished: false,\n           requestEnd: false\n        });\n    \n        \n        allloans[CurLoanCount] = newloan;\n        allLoaners.push(_loaner);\n        allDebtors.push(_debtor);\n        loaners[loanerprivkey] = _loaner;\n        debtors[debtorprivkey] = _debtor;\n        \n        _debtor.transfer(msg.value);\n        \n        CurLoanCount++;\n        \n        return newloan.index;\n    }\n    \n    \n    function endLoan(uint index) public payable{\n        Loan storage  tmploan = allloans[index];\n        require(msg.sender == tmploan.loaner, \"Only the loaner can call this function. Debtor must requets an end to the loan\");\n        \n        // //lay loaner from debtor\n        address payable loaner = tmploan.loaner;\n        uint interest = tmploan.interest * tmploan.amount;\n        //This function has some issues, throwing non descript errors, \n        //possible that we may need to make the debtor call this function to get the funds to the loaner.\n        //The frontend would populate the 'amount' parameter forcing the debtor to pay the loan at the required amount.\n        //The loaner would never call this function, they would call a frontend method that forces the debtor to pay the required amount back to the contract. \n        \n        //how to use webjs to check wallet balances https://ethereum.stackexchange.com/questions/39746/cant-get-address-balance-using-web3js <-- needed for forcing debtor\n        \n        loaner.transfer(tmploan.amount + interest);\n        CurLoanCount--;\n    }\n    \n    \n    \n    \n    function requestEnd(uint index) public payable{\n        Loan storage  tmploan = allloans[index];\n        if(!tmploan.loanFinished){\n        require(msg.sender == tmploan.debtor);\n        tmploan.requestEnd = true;        \n        }\n    }\n    \n    function confirmEnd(uint index, bool option) public payable{ \n        Loan storage  tmploan = allloans[index];\n        require(msg.sender == tmploan.loaner, \"Only the Loaner May call this function\");\n        if(!tmploan.loanFinished){\n        if(tmploan.requestEnd){\n                tmploan.loanFinished = true;\n                tmploan.debtor.transfer(tmploan.amount);\n            }   \n        }\n        \n    }\n    \n    \n    function payLoan(uint index) public payable returns(bool){\n        //require that sender has the money \n        require(msg.value != 0 && msg.value > 0, \"Amount must be non negative and greater than one\");\n        Loan storage  tmploan = allloans[index];\n        if(!tmploan.loanFinished){\n            \n            uint amount = msg.value;\n            uint change = 0;\n            if(amount > tmploan.amount){\n                tmploan.amount = 0;\n                change = amount - tmploan.amount;\n            }\n            \n            if(change!=0){\n                //if the debtor \n                tmploan.loaner.transfer(change);\n            }\n            \n            if(amount == 0){\n                tmploan.loanFinished = true;\n                return true;\n            }\n            return false;\n        }\n    }\n    \n    \n    function getDebtor(uint  debtorID) public returns (address) {\n        Loan storage  tmploan = allloans[debtorID];\n        return tmploan.debtor;\n    }\n    \n    function getLoaner(uint  loanerID) public returns(address) {\n        Loan storage  tmploan = allloans[loanerID];\n        return tmploan.loaner;\n    }\n    \n    \n    function getAllLoaners() public view returns (address[] memory){\n        return allLoaners;\n    }\n    \n    function getAllDebtors() public view returns (address[] memory){\n        return allDebtors;\n    }\n    \n    function getAllLoans() public view returns(Loan[] memory){\n        return everyLoan;\n    }\n    \n    function getNumLoans() public view returns(uint){\n        return CurLoanCount;\n    }\n    function checkLoan(uint index) public returns( uint amount,\n    address payable loaner,\n    address payable debtor, \n    uint _index,\n    uint interest,\n    uint dueDate,\n    uint condition,\n    bool loanFinished,\n    bool requestEnd){\n    \n    Loan storage  tmploan = allloans[index];\n           uint curtime = now;\n            // if(curtime > tmploan.dueDate){\n            //     tmploan.loanFinished = true;\n            //     tmploan.loaner.transfer(tmploan.amount + tmploan.interest);\n            // }\n                        \n            return(tmploan.amount,tmploan.loaner, tmploan.debtor, tmploan.index, tmploan.interest, tmploan.dueDate, tmploan.condition, tmploan.loanFinished, tmploan.requestEnd); \n    }\n    \n    //check below comment on how a date is a uint (below is needed for frontend interaction with the contract)\n    //https://ethereum.stackexchange.com/questions/32173/how-to-handle-dates-in-solidity-and-web3\n    \n}",
  "sourcePath": "/Users/harrisonaffel/Desktop/finblock/Blockchain/lendmoney/contract/contracts/lendMoney.sol",
  "compiler": {
    "name": "solc",
    "version": "0.5.8+commit.23d335f2.Emscripten.clang"
  },
  "schemaVersion": "3.0.11",
  "updatedAt": "2019-08-05T18:17:43.906Z",
  "devdoc": {
    "methods": {}
  },
  "userdoc": {
    "methods": {}
  }
}