{
  "contractName": "lendMoney",
  "abi": [
    {
      "constant": false,
      "inputs": [
        {
          "name": "_loaner",
          "type": "address"
        },
        {
          "name": "_debtor",
          "type": "address"
        },
        {
          "name": "_amount",
          "type": "uint256"
        },
        {
          "name": "_interest",
          "type": "uint256"
        },
        {
          "name": "_duedate",
          "type": "uint256"
        },
        {
          "name": "_condition",
          "type": "uint256"
        },
        {
          "name": "loanerprivkey",
          "type": "address"
        },
        {
          "name": "debtorprivkey",
          "type": "address"
        }
      ],
      "name": "startLoan",
      "outputs": [
        {
          "name": "",
          "type": "uint256"
        }
      ],
      "payable": true,
      "stateMutability": "payable",
      "type": "function"
    },
    {
      "constant": false,
      "inputs": [
        {
          "name": "index",
          "type": "uint256"
        }
      ],
      "name": "endLoan",
      "outputs": [],
      "payable": true,
      "stateMutability": "payable",
      "type": "function"
    },
    {
      "constant": false,
      "inputs": [
        {
          "name": "index",
          "type": "uint256"
        }
      ],
      "name": "requestEnd",
      "outputs": [],
      "payable": true,
      "stateMutability": "payable",
      "type": "function"
    },
    {
      "constant": false,
      "inputs": [
        {
          "name": "index",
          "type": "uint256"
        },
        {
          "name": "option",
          "type": "bool"
        }
      ],
      "name": "confirmEnd",
      "outputs": [],
      "payable": true,
      "stateMutability": "payable",
      "type": "function"
    },
    {
      "constant": false,
      "inputs": [
        {
          "name": "index",
          "type": "uint256"
        }
      ],
      "name": "payLoan",
      "outputs": [],
      "payable": true,
      "stateMutability": "payable",
      "type": "function"
    },
    {
      "constant": false,
      "inputs": [
        {
          "name": "debtorID",
          "type": "uint256"
        }
      ],
      "name": "getDebtor",
      "outputs": [
        {
          "name": "",
          "type": "address"
        }
      ],
      "payable": false,
      "stateMutability": "nonpayable",
      "type": "function"
    },
    {
      "constant": false,
      "inputs": [
        {
          "name": "loanerID",
          "type": "uint256"
        }
      ],
      "name": "getLoaner",
      "outputs": [
        {
          "name": "",
          "type": "address"
        }
      ],
      "payable": false,
      "stateMutability": "nonpayable",
      "type": "function"
    },
    {
      "constant": true,
      "inputs": [],
      "name": "getAllLoaners",
      "outputs": [
        {
          "name": "",
          "type": "address[]"
        }
      ],
      "payable": false,
      "stateMutability": "view",
      "type": "function"
    },
    {
      "constant": true,
      "inputs": [],
      "name": "getAllDebtors",
      "outputs": [
        {
          "name": "",
          "type": "address[]"
        }
      ],
      "payable": false,
      "stateMutability": "view",
      "type": "function"
    },
    {
      "constant": false,
      "inputs": [
        {
          "name": "index",
          "type": "uint256"
        }
      ],
      "name": "checkLoan",
      "outputs": [
        {
          "name": "amount",
          "type": "uint256"
        },
        {
          "name": "loaner",
          "type": "address"
        },
        {
          "name": "debtor",
          "type": "address"
        },
        {
          "name": "_index",
          "type": "uint256"
        },
        {
          "name": "interest",
          "type": "uint256"
        },
        {
          "name": "dueDate",
          "type": "uint256"
        },
        {
          "name": "condition",
          "type": "uint256"
        },
        {
          "name": "loanFinished",
          "type": "bool"
        },
        {
          "name": "requestEnd",
          "type": "bool"
        }
      ],
      "payable": false,
      "stateMutability": "nonpayable",
      "type": "function"
    }
  ],
  "bytecode": "0x60806040526000805534801561001457600080fd5b50611186806100246000396000f3fe6080604052600436106100915760003560e01c80638c5c8db9116100595780638c5c8db9146102ba578063a246e2c3146102f4578063a8d7b3ec14610360578063c64b180b1461038e578063ed344f021461040957610091565b80630457df461461009657806306e72979146100c45780631ea60363146101305780637870860b146101ab57806382810f5f146101d9575b600080fd5b6100c2600480360360208110156100ac57600080fd5b81019080803590602001909291905050506104f0565b005b3480156100d057600080fd5b506100d9610584565b6040518080602001828103825283818151815260200191508051906020019060200280838360005b8381101561011c578082015181840152602081019050610101565b505050509050019250505060405180910390f35b34801561013c57600080fd5b506101696004803603602081101561015357600080fd5b8101908080359060200190929190505050610612565b604051808273ffffffffffffffffffffffffffffffffffffffff1673ffffffffffffffffffffffffffffffffffffffff16815260200191505060405180910390f35b6101d7600480360360208110156101c157600080fd5b8101908080359060200190929190505050610657565b005b6102a460048036036101008110156101f057600080fd5b81019080803573ffffffffffffffffffffffffffffffffffffffff169060200190929190803573ffffffffffffffffffffffffffffffffffffffff16906020019092919080359060200190929190803590602001909291908035906020019092919080359060200190929190803573ffffffffffffffffffffffffffffffffffffffff169060200190929190803573ffffffffffffffffffffffffffffffffffffffff1690602001909291905050506107a1565b6040518082815260200191505060405180910390f35b6102f2600480360360408110156102d057600080fd5b8101908080359060200190929190803515159060200190929190505050610b6e565b005b34801561030057600080fd5b50610309610cd6565b6040518080602001828103825283818151815260200191508051906020019060200280838360005b8381101561034c578082015181840152602081019050610331565b505050509050019250505060405180910390f35b61038c6004803603602081101561037657600080fd5b8101908080359060200190929190505050610d64565b005b34801561039a57600080fd5b506103c7600480360360208110156103b157600080fd5b8101908080359060200190929190505050610e85565b604051808273ffffffffffffffffffffffffffffffffffffffff1673ffffffffffffffffffffffffffffffffffffffff16815260200191505060405180910390f35b34801561041557600080fd5b506104426004803603602081101561042c57600080fd5b8101908080359060200190929190505050610eca565b604051808a81526020018973ffffffffffffffffffffffffffffffffffffffff1673ffffffffffffffffffffffffffffffffffffffff1681526020018873ffffffffffffffffffffffffffffffffffffffff1673ffffffffffffffffffffffffffffffffffffffff1681526020018781526020018681526020018581526020018481526020018315151515815260200182151515158152602001995050505050505050505060405180910390f35b60006003600083815260200190815260200160002090508060020160009054906101000a900473ffffffffffffffffffffffffffffffffffffffff1673ffffffffffffffffffffffffffffffffffffffff163373ffffffffffffffffffffffffffffffffffffffff161461056357600080fd5b60018160070160016101000a81548160ff0219169083151502179055505050565b6060600480548060200260200160405190810160405280929190818152602001828054801561060857602002820191906000526020600020905b8160009054906101000a900473ffffffffffffffffffffffffffffffffffffffff1673ffffffffffffffffffffffffffffffffffffffff16815260200190600101908083116105be575b5050505050905090565b6000806003600084815260200190815260200160002090508060020160009054906101000a900473ffffffffffffffffffffffffffffffffffffffff16915050919050565b60006003600083815260200190815260200160002090508060010160009054906101000a900473ffffffffffffffffffffffffffffffffffffffff1673ffffffffffffffffffffffffffffffffffffffff163373ffffffffffffffffffffffffffffffffffffffff1614610716576040517f08c379a000000000000000000000000000000000000000000000000000000000815260040180806020018281038252604e8152602001806110b7604e913960600191505060405180910390fd5b60008160010160009054906101000a900473ffffffffffffffffffffffffffffffffffffffff1690506000826000015483600401540290508173ffffffffffffffffffffffffffffffffffffffff166108fc828560000154019081150290604051600060405180830381858888f1935050505015801561079a573d6000803e3d6000fd5b5050505050565b60006107ab61103a565b6040518061012001604052808981526020018b73ffffffffffffffffffffffffffffffffffffffff1681526020018a73ffffffffffffffffffffffffffffffffffffffff16815260200160005481526020018881526020018781526020018681526020016000151581526020016000151581525090508060036000805481526020019081526020016000206000820151816000015560208201518160010160006101000a81548173ffffffffffffffffffffffffffffffffffffffff021916908373ffffffffffffffffffffffffffffffffffffffff16021790555060408201518160020160006101000a81548173ffffffffffffffffffffffffffffffffffffffff021916908373ffffffffffffffffffffffffffffffffffffffff160217905550606082015181600301556080820151816004015560a0820151816005015560c0820151816006015560e08201518160070160006101000a81548160ff0219169083151502179055506101008201518160070160016101000a81548160ff02191690831515021790555090505060048a90806001815401808255809150509060018203906000526020600020016000909192909190916101000a81548173ffffffffffffffffffffffffffffffffffffffff021916908373ffffffffffffffffffffffffffffffffffffffff1602179055505060058990806001815401808255809150509060018203906000526020600020016000909192909190916101000a81548173ffffffffffffffffffffffffffffffffffffffff021916908373ffffffffffffffffffffffffffffffffffffffff1602179055505089600160008673ffffffffffffffffffffffffffffffffffffffff1673ffffffffffffffffffffffffffffffffffffffff16815260200190815260200160002060006101000a81548173ffffffffffffffffffffffffffffffffffffffff021916908373ffffffffffffffffffffffffffffffffffffffff16021790555088600260008573ffffffffffffffffffffffffffffffffffffffff1673ffffffffffffffffffffffffffffffffffffffff16815260200190815260200160002060006101000a81548173ffffffffffffffffffffffffffffffffffffffff021916908373ffffffffffffffffffffffffffffffffffffffff1602179055508873ffffffffffffffffffffffffffffffffffffffff166108fc349081150290604051600060405180830381858888f19350505050158015610b48573d6000803e3d6000fd5b506000808154809291906001019190505550806060015191505098975050505050505050565b60006003600084815260200190815260200160002090508060010160009054906101000a900473ffffffffffffffffffffffffffffffffffffffff1673ffffffffffffffffffffffffffffffffffffffff163373ffffffffffffffffffffffffffffffffffffffff1614610c2d576040517f08c379a00000000000000000000000000000000000000000000000000000000081526004018080602001828103825260268152602001806111356026913960400191505060405180910390fd5b8060070160019054906101000a900460ff1615610cd15760018160070160006101000a81548160ff0219169083151502179055508060020160009054906101000a900473ffffffffffffffffffffffffffffffffffffffff1673ffffffffffffffffffffffffffffffffffffffff166108fc82600001549081150290604051600060405180830381858888f19350505050158015610ccf573d6000803e3d6000fd5b505b505050565b60606005805480602002602001604051908101604052809291908181526020018280548015610d5a57602002820191906000526020600020905b8160009054906101000a900473ffffffffffffffffffffffffffffffffffffffff1673ffffffffffffffffffffffffffffffffffffffff1681526020019060010190808311610d10575b5050505050905090565b60003414158015610d755750600034115b610dca576040517f08c379a00000000000000000000000000000000000000000000000000000000081526004018080602001828103825260308152602001806111056030913960400191505060405180910390fd5b6000600360008381526020019081526020016000209050600034905060008090508260000154821115610e0b57600083600001819055508260000154820390505b60008114610e7f578260020160009054906101000a900473ffffffffffffffffffffffffffffffffffffffff1673ffffffffffffffffffffffffffffffffffffffff166108fc829081150290604051600060405180830381858888f19350505050158015610e7d573d6000803e3d6000fd5b505b50505050565b6000806003600084815260200190815260200160002090508060010160009054906101000a900473ffffffffffffffffffffffffffffffffffffffff16915050919050565b600080600080600080600080600080600360008c8152602001908152602001600020905060004290508160050154811115610f925760018260070160006101000a81548160ff0219169083151502179055508160010160009054906101000a900473ffffffffffffffffffffffffffffffffffffffff1673ffffffffffffffffffffffffffffffffffffffff166108fc83600401548460000154019081150290604051600060405180830381858888f19350505050158015610f90573d6000803e3d6000fd5b505b81600001548260010160009054906101000a900473ffffffffffffffffffffffffffffffffffffffff168360020160009054906101000a900473ffffffffffffffffffffffffffffffffffffffff1684600301548560040154866005015487600601548860070160009054906101000a900460ff168960070160019054906101000a900460ff169a509a509a509a509a509a509a509a509a5050509193959799909294969850565b60405180610120016040528060008152602001600073ffffffffffffffffffffffffffffffffffffffff168152602001600073ffffffffffffffffffffffffffffffffffffffff16815260200160008152602001600081526020016000815260200160008152602001600015158152602001600015158152509056fe4f6e6c7920746865206c6f616e65722063616e2063616c6c20746869732066756e6374696f6e2e20446562746f72206d757374207265717565747320616e20656e6420746f20746865206c6f616e416d6f756e74206d757374206265206e6f6e206e6567617469766520616e642067726561746572207468616e206f6e654f6e6c7920746865204c6f616e6572204d61792063616c6c20746869732066756e6374696f6ea165627a7a723058208f1c107cb83745fcf59a97eea77e39f470c8d7eed8c931517211b465a36de3e00029",
  "source": "pragma solidity ^0.5.0;\r\n\r\ncontract lendMoney{\r\n    \r\nstruct Loan {\r\n    uint amount;\r\n    address payable loaner;\r\n    address payable debtor; \r\n    uint index;\r\n    uint interest;\r\n    uint dueDate;\r\n    uint condition; \r\n    bool loanFinished;\r\n    bool requestEnd;\r\n}\r\n    uint CurLoanCount = 0;\r\n    mapping(address => address) loaners;\r\n    mapping(address => address) debtors;\r\n\r\n    mapping(uint => Loan) allloans;\r\n    \r\n    address[] allLoaners;\r\n    address[] allDebtors;\r\n    \r\n    //add params\r\n    function startLoan(address payable _loaner, address payable _debtor, uint _amount, uint _interest, uint _duedate, uint _condition, address loanerprivkey, address debtorprivkey) public payable returns (uint){\r\n        Loan memory newloan =  Loan({\r\n           amount: _amount,\r\n           loaner: _loaner,\r\n           debtor: _debtor,\r\n           index: CurLoanCount,\r\n           interest: _interest,\r\n           dueDate: _duedate, \r\n           condition: _condition,\r\n           loanFinished: false,\r\n           requestEnd: false\r\n        });\r\n        //we need a way to have this function alert the debtor/loaner. or maybe just handle that all on the front end \r\n        allloans[CurLoanCount] = newloan;\r\n        allLoaners.push(_loaner);\r\n        allDebtors.push(_debtor);\r\n        loaners[loanerprivkey] = _loaner;\r\n        debtors[debtorprivkey] = _debtor;\r\n        \r\n        _debtor.transfer(msg.value);\r\n        \r\n        CurLoanCount++;\r\n        \r\n        return newloan.index;\r\n    }\r\n    \r\n    \r\n    function endLoan(uint index) public payable{\r\n        Loan storage  tmploan = allloans[index];\r\n        require(msg.sender == tmploan.loaner, \"Only the loaner can call this function. Debtor must requets an end to the loan\");\r\n        \r\n        // //lay loaner from debtor\r\n        address payable loaner = tmploan.loaner;\r\n        uint interest = tmploan.interest * tmploan.amount;\r\n        //This function has some issues, throwing non descript errors, \r\n        //possible that we may need to make the debtor call this function to get the funds to the loaner.\r\n        //The frontend would populate the 'amount' parameter forcing the debtor to pay the loan at the required amount.\r\n        //The loaner would never call this function, they would call a frontend method that forces the debtor to pay the required amount back to the contract. \r\n        \r\n        //how to use webjs to check wallet balances https://ethereum.stackexchange.com/questions/39746/cant-get-address-balance-using-web3js <-- needed for forcing debtor\r\n        \r\n        loaner.transfer(tmploan.amount + interest);\r\n    }\r\n    \r\n    \r\n    \r\n    function requestEnd(uint index) public payable{\r\n        Loan storage  tmploan = allloans[index];\r\n        require(msg.sender == tmploan.debtor);\r\n        tmploan.requestEnd = true;        \r\n    }\r\n    \r\n    function confirmEnd(uint index, bool option) public payable{ \r\n        Loan storage  tmploan = allloans[index];\r\n        require(msg.sender == tmploan.loaner, \"Only the Loaner May call this function\");\r\n        if(tmploan.requestEnd){\r\n            tmploan.loanFinished = true;\r\n            tmploan.debtor.transfer(tmploan.amount);\r\n        }   \r\n        \r\n    }\r\n    \r\n    \r\n    function payLoan(uint index) public payable{\r\n        //require that sender has the money \r\n        require(msg.value != 0 && msg.value > 0, \"Amount must be non negative and greater than one\");\r\n        Loan storage  tmploan = allloans[index];\r\n        uint amount = msg.value;\r\n        uint change = 0;\r\n        if(amount > tmploan.amount){\r\n            tmploan.amount = 0;\r\n            change = amount - tmploan.amount;\r\n        }\r\n        \r\n        if(change!=0){\r\n            //if the debtor \r\n            tmploan.debtor.transfer(change);\r\n        }\r\n        \r\n    }\r\n    \r\n    \r\n    function getDebtor(uint  debtorID) public returns (address) {\r\n        Loan storage  tmploan = allloans[debtorID];\r\n        return tmploan.debtor;\r\n    }\r\n    \r\n    function getLoaner(uint  loanerID) public returns(address) {\r\n        Loan storage  tmploan = allloans[loanerID];\r\n        return tmploan.loaner;\r\n    }\r\n    \r\n    \r\n    function getAllLoaners() public view returns (address[] memory){\r\n        return allLoaners;\r\n    }\r\n    \r\n    function getAllDebtors() public view returns (address[] memory){\r\n        return allDebtors;\r\n    }\r\n    \r\n    \r\n    function checkLoan(uint index) public returns( uint amount,\r\n    address payable loaner,\r\n    address payable debtor, \r\n    uint _index,\r\n    uint interest,\r\n    uint dueDate,\r\n    uint condition,\r\n    bool loanFinished,\r\n    bool requestEnd){\r\n\r\n    Loan storage  tmploan = allloans[index];\r\n           uint curtime = now;\r\n            if(curtime > tmploan.dueDate){\r\n                tmploan.loanFinished = true;\r\n                tmploan.loaner.transfer(tmploan.amount + tmploan.interest);\r\n            }\r\n                        \r\n            return(tmploan.amount,tmploan.loaner, tmploan.debtor, tmploan.index, tmploan.interest, tmploan.dueDate, tmploan.condition, tmploan.loanFinished, tmploan.requestEnd); \r\n    }\r\n    \r\n    //check below comment on how a date is a uint (below is needed for frontend interaction with the contract)\r\n    //https://ethereum.stackexchange.com/questions/32173/how-to-handle-dates-in-solidity-and-web3\r\n    \r\n}\r\n",
  "sourcePath": "C:/Users/malnatij/Desktop/Blockchain-master/BlockChain/Blockchain/lendmoney/contract/contracts/lendMoney.sol",
  "compiler": {
    "name": "solc",
    "version": "0.5.8+commit.23d335f2.Emscripten.clang"
  },
  "schemaVersion": "3.0.11",
  "updatedAt": "2019-08-02T19:00:25.288Z",
  "devdoc": {
    "methods": {}
  },
  "userdoc": {
    "methods": {}
  }
}